{
  "address": "0xCf7Ed3AccA5a467e9e704C703E8D87F634fB0Fc9",
  "abi": [
    {
      "inputs": [
        {
          "internalType": "contract IVotes",
          "name": "_token",
          "type": "address"
        },
        {
          "internalType": "contract TimelockController",
          "name": "_timelock",
          "type": "address"
        },
        {
          "internalType": "uint256",
          "name": "_votingDelay",
          "type": "uint256"
        },
        {
          "internalType": "uint256",
          "name": "_votingPeriod",
          "type": "uint256"
        },
        {
          "internalType": "uint256",
          "name": "_quorumPercentage",
          "type": "uint256"
        }
      ],
      "stateMutability": "nonpayable",
      "type": "constructor"
    },
    {
      "inputs": [],
      "name": "Empty",
      "type": "error"
    },
    {
      "anonymous": false,
      "inputs": [
        {
          "indexed": false,
          "internalType": "uint256",
          "name": "proposalId",
          "type": "uint256"
        }
      ],
      "name": "ProposalCanceled",
      "type": "event"
    },
    {
      "anonymous": false,
      "inputs": [
        {
          "indexed": false,
          "internalType": "uint256",
          "name": "proposalId",
          "type": "uint256"
        },
        {
          "indexed": false,
          "internalType": "address",
          "name": "proposer",
          "type": "address"
        },
        {
          "indexed": false,
          "internalType": "address[]",
          "name": "targets",
          "type": "address[]"
        },
        {
          "indexed": false,
          "internalType": "uint256[]",
          "name": "values",
          "type": "uint256[]"
        },
        {
          "indexed": false,
          "internalType": "string[]",
          "name": "signatures",
          "type": "string[]"
        },
        {
          "indexed": false,
          "internalType": "bytes[]",
          "name": "calldatas",
          "type": "bytes[]"
        },
        {
          "indexed": false,
          "internalType": "uint256",
          "name": "startBlock",
          "type": "uint256"
        },
        {
          "indexed": false,
          "internalType": "uint256",
          "name": "endBlock",
          "type": "uint256"
        },
        {
          "indexed": false,
          "internalType": "string",
          "name": "description",
          "type": "string"
        }
      ],
      "name": "ProposalCreated",
      "type": "event"
    },
    {
      "anonymous": false,
      "inputs": [
        {
          "indexed": false,
          "internalType": "uint256",
          "name": "proposalId",
          "type": "uint256"
        }
      ],
      "name": "ProposalExecuted",
      "type": "event"
    },
    {
      "anonymous": false,
      "inputs": [
        {
          "indexed": false,
          "internalType": "uint256",
          "name": "proposalId",
          "type": "uint256"
        },
        {
          "indexed": false,
          "internalType": "uint256",
          "name": "eta",
          "type": "uint256"
        }
      ],
      "name": "ProposalQueued",
      "type": "event"
    },
    {
      "anonymous": false,
      "inputs": [
        {
          "indexed": false,
          "internalType": "uint256",
          "name": "oldProposalThreshold",
          "type": "uint256"
        },
        {
          "indexed": false,
          "internalType": "uint256",
          "name": "newProposalThreshold",
          "type": "uint256"
        }
      ],
      "name": "ProposalThresholdSet",
      "type": "event"
    },
    {
      "anonymous": false,
      "inputs": [
        {
          "indexed": false,
          "internalType": "uint256",
          "name": "oldQuorumNumerator",
          "type": "uint256"
        },
        {
          "indexed": false,
          "internalType": "uint256",
          "name": "newQuorumNumerator",
          "type": "uint256"
        }
      ],
      "name": "QuorumNumeratorUpdated",
      "type": "event"
    },
    {
      "anonymous": false,
      "inputs": [
        {
          "indexed": false,
          "internalType": "address",
          "name": "oldTimelock",
          "type": "address"
        },
        {
          "indexed": false,
          "internalType": "address",
          "name": "newTimelock",
          "type": "address"
        }
      ],
      "name": "TimelockChange",
      "type": "event"
    },
    {
      "anonymous": false,
      "inputs": [
        {
          "indexed": true,
          "internalType": "address",
          "name": "voter",
          "type": "address"
        },
        {
          "indexed": false,
          "internalType": "uint256",
          "name": "proposalId",
          "type": "uint256"
        },
        {
          "indexed": false,
          "internalType": "uint8",
          "name": "support",
          "type": "uint8"
        },
        {
          "indexed": false,
          "internalType": "uint256",
          "name": "weight",
          "type": "uint256"
        },
        {
          "indexed": false,
          "internalType": "string",
          "name": "reason",
          "type": "string"
        }
      ],
      "name": "VoteCast",
      "type": "event"
    },
    {
      "anonymous": false,
      "inputs": [
        {
          "indexed": true,
          "internalType": "address",
          "name": "voter",
          "type": "address"
        },
        {
          "indexed": false,
          "internalType": "uint256",
          "name": "proposalId",
          "type": "uint256"
        },
        {
          "indexed": false,
          "internalType": "uint8",
          "name": "support",
          "type": "uint8"
        },
        {
          "indexed": false,
          "internalType": "uint256",
          "name": "weight",
          "type": "uint256"
        },
        {
          "indexed": false,
          "internalType": "string",
          "name": "reason",
          "type": "string"
        },
        {
          "indexed": false,
          "internalType": "bytes",
          "name": "params",
          "type": "bytes"
        }
      ],
      "name": "VoteCastWithParams",
      "type": "event"
    },
    {
      "anonymous": false,
      "inputs": [
        {
          "indexed": false,
          "internalType": "uint256",
          "name": "oldVotingDelay",
          "type": "uint256"
        },
        {
          "indexed": false,
          "internalType": "uint256",
          "name": "newVotingDelay",
          "type": "uint256"
        }
      ],
      "name": "VotingDelaySet",
      "type": "event"
    },
    {
      "anonymous": false,
      "inputs": [
        {
          "indexed": false,
          "internalType": "uint256",
          "name": "oldVotingPeriod",
          "type": "uint256"
        },
        {
          "indexed": false,
          "internalType": "uint256",
          "name": "newVotingPeriod",
          "type": "uint256"
        }
      ],
      "name": "VotingPeriodSet",
      "type": "event"
    },
    {
      "inputs": [],
      "name": "BALLOT_TYPEHASH",
      "outputs": [
        {
          "internalType": "bytes32",
          "name": "",
          "type": "bytes32"
        }
      ],
      "stateMutability": "view",
      "type": "function"
    },
    {
      "inputs": [],
      "name": "COUNTING_MODE",
      "outputs": [
        {
          "internalType": "string",
          "name": "",
          "type": "string"
        }
      ],
      "stateMutability": "pure",
      "type": "function"
    },
    {
      "inputs": [],
      "name": "EXTENDED_BALLOT_TYPEHASH",
      "outputs": [
        {
          "internalType": "bytes32",
          "name": "",
          "type": "bytes32"
        }
      ],
      "stateMutability": "view",
      "type": "function"
    },
    {
      "inputs": [
        {
          "internalType": "uint256",
          "name": "proposalId",
          "type": "uint256"
        },
        {
          "internalType": "uint8",
          "name": "support",
          "type": "uint8"
        }
      ],
      "name": "castVote",
      "outputs": [
        {
          "internalType": "uint256",
          "name": "",
          "type": "uint256"
        }
      ],
      "stateMutability": "nonpayable",
      "type": "function"
    },
    {
      "inputs": [
        {
          "internalType": "uint256",
          "name": "proposalId",
          "type": "uint256"
        },
        {
          "internalType": "uint8",
          "name": "support",
          "type": "uint8"
        },
        {
          "internalType": "uint8",
          "name": "v",
          "type": "uint8"
        },
        {
          "internalType": "bytes32",
          "name": "r",
          "type": "bytes32"
        },
        {
          "internalType": "bytes32",
          "name": "s",
          "type": "bytes32"
        }
      ],
      "name": "castVoteBySig",
      "outputs": [
        {
          "internalType": "uint256",
          "name": "",
          "type": "uint256"
        }
      ],
      "stateMutability": "nonpayable",
      "type": "function"
    },
    {
      "inputs": [
        {
          "internalType": "uint256",
          "name": "proposalId",
          "type": "uint256"
        },
        {
          "internalType": "uint8",
          "name": "support",
          "type": "uint8"
        },
        {
          "internalType": "string",
          "name": "reason",
          "type": "string"
        }
      ],
      "name": "castVoteWithReason",
      "outputs": [
        {
          "internalType": "uint256",
          "name": "",
          "type": "uint256"
        }
      ],
      "stateMutability": "nonpayable",
      "type": "function"
    },
    {
      "inputs": [
        {
          "internalType": "uint256",
          "name": "proposalId",
          "type": "uint256"
        },
        {
          "internalType": "uint8",
          "name": "support",
          "type": "uint8"
        },
        {
          "internalType": "string",
          "name": "reason",
          "type": "string"
        },
        {
          "internalType": "bytes",
          "name": "params",
          "type": "bytes"
        }
      ],
      "name": "castVoteWithReasonAndParams",
      "outputs": [
        {
          "internalType": "uint256",
          "name": "",
          "type": "uint256"
        }
      ],
      "stateMutability": "nonpayable",
      "type": "function"
    },
    {
      "inputs": [
        {
          "internalType": "uint256",
          "name": "proposalId",
          "type": "uint256"
        },
        {
          "internalType": "uint8",
          "name": "support",
          "type": "uint8"
        },
        {
          "internalType": "string",
          "name": "reason",
          "type": "string"
        },
        {
          "internalType": "bytes",
          "name": "params",
          "type": "bytes"
        },
        {
          "internalType": "uint8",
          "name": "v",
          "type": "uint8"
        },
        {
          "internalType": "bytes32",
          "name": "r",
          "type": "bytes32"
        },
        {
          "internalType": "bytes32",
          "name": "s",
          "type": "bytes32"
        }
      ],
      "name": "castVoteWithReasonAndParamsBySig",
      "outputs": [
        {
          "internalType": "uint256",
          "name": "",
          "type": "uint256"
        }
      ],
      "stateMutability": "nonpayable",
      "type": "function"
    },
    {
      "inputs": [
        {
          "internalType": "address[]",
          "name": "targets",
          "type": "address[]"
        },
        {
          "internalType": "uint256[]",
          "name": "values",
          "type": "uint256[]"
        },
        {
          "internalType": "bytes[]",
          "name": "calldatas",
          "type": "bytes[]"
        },
        {
          "internalType": "bytes32",
          "name": "descriptionHash",
          "type": "bytes32"
        }
      ],
      "name": "execute",
      "outputs": [
        {
          "internalType": "uint256",
          "name": "",
          "type": "uint256"
        }
      ],
      "stateMutability": "payable",
      "type": "function"
    },
    {
      "inputs": [
        {
          "internalType": "address",
          "name": "account",
          "type": "address"
        },
        {
          "internalType": "uint256",
          "name": "blockNumber",
          "type": "uint256"
        }
      ],
      "name": "getVotes",
      "outputs": [
        {
          "internalType": "uint256",
          "name": "",
          "type": "uint256"
        }
      ],
      "stateMutability": "view",
      "type": "function"
    },
    {
      "inputs": [
        {
          "internalType": "address",
          "name": "account",
          "type": "address"
        },
        {
          "internalType": "uint256",
          "name": "blockNumber",
          "type": "uint256"
        },
        {
          "internalType": "bytes",
          "name": "params",
          "type": "bytes"
        }
      ],
      "name": "getVotesWithParams",
      "outputs": [
        {
          "internalType": "uint256",
          "name": "",
          "type": "uint256"
        }
      ],
      "stateMutability": "view",
      "type": "function"
    },
    {
      "inputs": [
        {
          "internalType": "uint256",
          "name": "proposalId",
          "type": "uint256"
        },
        {
          "internalType": "address",
          "name": "account",
          "type": "address"
        }
      ],
      "name": "hasVoted",
      "outputs": [
        {
          "internalType": "bool",
          "name": "",
          "type": "bool"
        }
      ],
      "stateMutability": "view",
      "type": "function"
    },
    {
      "inputs": [
        {
          "internalType": "address[]",
          "name": "targets",
          "type": "address[]"
        },
        {
          "internalType": "uint256[]",
          "name": "values",
          "type": "uint256[]"
        },
        {
          "internalType": "bytes[]",
          "name": "calldatas",
          "type": "bytes[]"
        },
        {
          "internalType": "bytes32",
          "name": "descriptionHash",
          "type": "bytes32"
        }
      ],
      "name": "hashProposal",
      "outputs": [
        {
          "internalType": "uint256",
          "name": "",
          "type": "uint256"
        }
      ],
      "stateMutability": "pure",
      "type": "function"
    },
    {
      "inputs": [],
      "name": "name",
      "outputs": [
        {
          "internalType": "string",
          "name": "",
          "type": "string"
        }
      ],
      "stateMutability": "view",
      "type": "function"
    },
    {
      "inputs": [
        {
          "internalType": "address",
          "name": "",
          "type": "address"
        },
        {
          "internalType": "address",
          "name": "",
          "type": "address"
        },
        {
          "internalType": "uint256[]",
          "name": "",
          "type": "uint256[]"
        },
        {
          "internalType": "uint256[]",
          "name": "",
          "type": "uint256[]"
        },
        {
          "internalType": "bytes",
          "name": "",
          "type": "bytes"
        }
      ],
      "name": "onERC1155BatchReceived",
      "outputs": [
        {
          "internalType": "bytes4",
          "name": "",
          "type": "bytes4"
        }
      ],
      "stateMutability": "nonpayable",
      "type": "function"
    },
    {
      "inputs": [
        {
          "internalType": "address",
          "name": "",
          "type": "address"
        },
        {
          "internalType": "address",
          "name": "",
          "type": "address"
        },
        {
          "internalType": "uint256",
          "name": "",
          "type": "uint256"
        },
        {
          "internalType": "uint256",
          "name": "",
          "type": "uint256"
        },
        {
          "internalType": "bytes",
          "name": "",
          "type": "bytes"
        }
      ],
      "name": "onERC1155Received",
      "outputs": [
        {
          "internalType": "bytes4",
          "name": "",
          "type": "bytes4"
        }
      ],
      "stateMutability": "nonpayable",
      "type": "function"
    },
    {
      "inputs": [
        {
          "internalType": "address",
          "name": "",
          "type": "address"
        },
        {
          "internalType": "address",
          "name": "",
          "type": "address"
        },
        {
          "internalType": "uint256",
          "name": "",
          "type": "uint256"
        },
        {
          "internalType": "bytes",
          "name": "",
          "type": "bytes"
        }
      ],
      "name": "onERC721Received",
      "outputs": [
        {
          "internalType": "bytes4",
          "name": "",
          "type": "bytes4"
        }
      ],
      "stateMutability": "nonpayable",
      "type": "function"
    },
    {
      "inputs": [
        {
          "internalType": "uint256",
          "name": "proposalId",
          "type": "uint256"
        }
      ],
      "name": "proposalDeadline",
      "outputs": [
        {
          "internalType": "uint256",
          "name": "",
          "type": "uint256"
        }
      ],
      "stateMutability": "view",
      "type": "function"
    },
    {
      "inputs": [
        {
          "internalType": "uint256",
          "name": "proposalId",
          "type": "uint256"
        }
      ],
      "name": "proposalEta",
      "outputs": [
        {
          "internalType": "uint256",
          "name": "",
          "type": "uint256"
        }
      ],
      "stateMutability": "view",
      "type": "function"
    },
    {
      "inputs": [
        {
          "internalType": "uint256",
          "name": "proposalId",
          "type": "uint256"
        }
      ],
      "name": "proposalSnapshot",
      "outputs": [
        {
          "internalType": "uint256",
          "name": "",
          "type": "uint256"
        }
      ],
      "stateMutability": "view",
      "type": "function"
    },
    {
      "inputs": [],
      "name": "proposalThreshold",
      "outputs": [
        {
          "internalType": "uint256",
          "name": "",
          "type": "uint256"
        }
      ],
      "stateMutability": "view",
      "type": "function"
    },
    {
      "inputs": [
        {
          "internalType": "uint256",
          "name": "proposalId",
          "type": "uint256"
        }
      ],
      "name": "proposalVotes",
      "outputs": [
        {
          "internalType": "uint256",
          "name": "againstVotes",
          "type": "uint256"
        },
        {
          "internalType": "uint256",
          "name": "forVotes",
          "type": "uint256"
        },
        {
          "internalType": "uint256",
          "name": "abstainVotes",
          "type": "uint256"
        }
      ],
      "stateMutability": "view",
      "type": "function"
    },
    {
      "inputs": [
        {
          "internalType": "address[]",
          "name": "targets",
          "type": "address[]"
        },
        {
          "internalType": "uint256[]",
          "name": "values",
          "type": "uint256[]"
        },
        {
          "internalType": "bytes[]",
          "name": "calldatas",
          "type": "bytes[]"
        },
        {
          "internalType": "string",
          "name": "description",
          "type": "string"
        }
      ],
      "name": "propose",
      "outputs": [
        {
          "internalType": "uint256",
          "name": "",
          "type": "uint256"
        }
      ],
      "stateMutability": "nonpayable",
      "type": "function"
    },
    {
      "inputs": [
        {
          "internalType": "address[]",
          "name": "targets",
          "type": "address[]"
        },
        {
          "internalType": "uint256[]",
          "name": "values",
          "type": "uint256[]"
        },
        {
          "internalType": "bytes[]",
          "name": "calldatas",
          "type": "bytes[]"
        },
        {
          "internalType": "bytes32",
          "name": "descriptionHash",
          "type": "bytes32"
        }
      ],
      "name": "queue",
      "outputs": [
        {
          "internalType": "uint256",
          "name": "",
          "type": "uint256"
        }
      ],
      "stateMutability": "nonpayable",
      "type": "function"
    },
    {
      "inputs": [
        {
          "internalType": "uint256",
          "name": "blockNumber",
          "type": "uint256"
        }
      ],
      "name": "quorum",
      "outputs": [
        {
          "internalType": "uint256",
          "name": "",
          "type": "uint256"
        }
      ],
      "stateMutability": "view",
      "type": "function"
    },
    {
      "inputs": [],
      "name": "quorumDenominator",
      "outputs": [
        {
          "internalType": "uint256",
          "name": "",
          "type": "uint256"
        }
      ],
      "stateMutability": "view",
      "type": "function"
    },
    {
      "inputs": [
        {
          "internalType": "uint256",
          "name": "blockNumber",
          "type": "uint256"
        }
      ],
      "name": "quorumNumerator",
      "outputs": [
        {
          "internalType": "uint256",
          "name": "",
          "type": "uint256"
        }
      ],
      "stateMutability": "view",
      "type": "function"
    },
    {
      "inputs": [],
      "name": "quorumNumerator",
      "outputs": [
        {
          "internalType": "uint256",
          "name": "",
          "type": "uint256"
        }
      ],
      "stateMutability": "view",
      "type": "function"
    },
    {
      "inputs": [
        {
          "internalType": "address",
          "name": "target",
          "type": "address"
        },
        {
          "internalType": "uint256",
          "name": "value",
          "type": "uint256"
        },
        {
          "internalType": "bytes",
          "name": "data",
          "type": "bytes"
        }
      ],
      "name": "relay",
      "outputs": [],
      "stateMutability": "nonpayable",
      "type": "function"
    },
    {
      "inputs": [
        {
          "internalType": "uint256",
          "name": "newProposalThreshold",
          "type": "uint256"
        }
      ],
      "name": "setProposalThreshold",
      "outputs": [],
      "stateMutability": "nonpayable",
      "type": "function"
    },
    {
      "inputs": [
        {
          "internalType": "uint256",
          "name": "newVotingDelay",
          "type": "uint256"
        }
      ],
      "name": "setVotingDelay",
      "outputs": [],
      "stateMutability": "nonpayable",
      "type": "function"
    },
    {
      "inputs": [
        {
          "internalType": "uint256",
          "name": "newVotingPeriod",
          "type": "uint256"
        }
      ],
      "name": "setVotingPeriod",
      "outputs": [],
      "stateMutability": "nonpayable",
      "type": "function"
    },
    {
      "inputs": [
        {
          "internalType": "uint256",
          "name": "proposalId",
          "type": "uint256"
        }
      ],
      "name": "state",
      "outputs": [
        {
          "internalType": "enum IGovernor.ProposalState",
          "name": "",
          "type": "uint8"
        }
      ],
      "stateMutability": "view",
      "type": "function"
    },
    {
      "inputs": [
        {
          "internalType": "bytes4",
          "name": "interfaceId",
          "type": "bytes4"
        }
      ],
      "name": "supportsInterface",
      "outputs": [
        {
          "internalType": "bool",
          "name": "",
          "type": "bool"
        }
      ],
      "stateMutability": "view",
      "type": "function"
    },
    {
      "inputs": [],
      "name": "timelock",
      "outputs": [
        {
          "internalType": "address",
          "name": "",
          "type": "address"
        }
      ],
      "stateMutability": "view",
      "type": "function"
    },
    {
      "inputs": [],
      "name": "token",
      "outputs": [
        {
          "internalType": "contract IVotes",
          "name": "",
          "type": "address"
        }
      ],
      "stateMutability": "view",
      "type": "function"
    },
    {
      "inputs": [
        {
          "internalType": "uint256",
          "name": "newQuorumNumerator",
          "type": "uint256"
        }
      ],
      "name": "updateQuorumNumerator",
      "outputs": [],
      "stateMutability": "nonpayable",
      "type": "function"
    },
    {
      "inputs": [
        {
          "internalType": "contract TimelockController",
          "name": "newTimelock",
          "type": "address"
        }
      ],
      "name": "updateTimelock",
      "outputs": [],
      "stateMutability": "nonpayable",
      "type": "function"
    },
    {
      "inputs": [],
      "name": "version",
      "outputs": [
        {
          "internalType": "string",
          "name": "",
          "type": "string"
        }
      ],
      "stateMutability": "view",
      "type": "function"
    },
    {
      "inputs": [],
      "name": "votingDelay",
      "outputs": [
        {
          "internalType": "uint256",
          "name": "",
          "type": "uint256"
        }
      ],
      "stateMutability": "view",
      "type": "function"
    },
    {
      "inputs": [],
      "name": "votingPeriod",
      "outputs": [
        {
          "internalType": "uint256",
          "name": "",
          "type": "uint256"
        }
      ],
      "stateMutability": "view",
      "type": "function"
    },
    {
      "stateMutability": "payable",
      "type": "receive"
    }
  ],
  "transactionHash": "0x2454a90987cd20765e4fbac65a4e82a9b3d49362891201e8214d04424f3ca96b",
  "args": [
    "0x5FbDB2315678afecb367f032d93F642f64180aa3",
    "0x9fE46736679d2D9a65F0992F2272dE9f3c7fa6e0",
    4,
    5,
    1
  ],
  "numDeployments": 1,
  "solcInputHash": "bbd24a4ebc153ccf3046217e3d6554e4",
  "bytecode": "0x6101606040523480156200001257600080fd5b5060405162007cc538038062007cc5833981810160405281019062000038919062000bae565b838186858560006040518060400160405280601281526020017f476f7665726e616e6365436f6e747261637400000000000000000000000000008152508062000086620001f360201b60201c565b60008280519060200120905060008280519060200120905060007f8b73c3c69bb8fe3d512ecc4cf759cc79239f7b179b0ffacaa9a75d522b39400f90508260e081815250508161010081815250504660a08181525050620000ef8184846200023060201b60201c565b608081815250503073ffffffffffffffffffffffffffffffffffffffff1660c08173ffffffffffffffffffffffffffffffffffffffff1660601b815250508061012081815250505050505050806000908051906020019062000153929190620009ec565b505062000166836200026c60201b60201c565b6200017782620002b360201b60201c565b62000188816200034060201b60201c565b5050508073ffffffffffffffffffffffffffffffffffffffff166101408173ffffffffffffffffffffffffffffffffffffffff1660601b8152505050620001d5816200038760201b60201c565b50620001e7816200056660201b60201c565b505050505050620010bf565b60606040518060400160405280600181526020017f3100000000000000000000000000000000000000000000000000000000000000815250905090565b600083838346306040516020016200024d95949392919062000c73565b6040516020818303038152906040528051906020012090509392505050565b7fc565b045403dc03c2eea82b81a0465edad9e2e7fc4d97e11421c209da93d7a9360045482604051620002a192919062000cd0565b60405180910390a18060048190555050565b60008111620002f9576040517f08c379a0000000000000000000000000000000000000000000000000000000008152600401620002f09062000d84565b60405180910390fd5b7f7e3f7f0708a84de9203036abaa450dccc85ad5ff52f78c170f3edb55cf5e8828600554826040516200032e92919062000cd0565b60405180910390a18060058190555050565b7fccb45da8d5717e6c4544694297c4ba5cf151d455c9bb0ed4fc7a38411bc05461600654826040516200037592919062000cd0565b60405180910390a18060068190555050565b620003976200060760201b60201c565b811115620003dc576040517f08c379a0000000000000000000000000000000000000000000000000000000008152600401620003d39062000e42565b60405180910390fd5b6000620003ee6200061060201b60201c565b9050600081141580156200040a57506000600960000180549050145b156200050a5760096000016040518060400160405280600063ffffffff16815260200162000443846200064860201b62001e7a1760201c565b7bffffffffffffffffffffffffffffffffffffffffffffffffffffffff168152509080600181540180825580915050600190039060005260206000200160009091909190915060008201518160000160006101000a81548163ffffffff021916908363ffffffff16021790555060208201518160000160046101000a8154817bffffffffffffffffffffffffffffffffffffffffffffffffffffffff02191690837bffffffffffffffffffffffffffffffffffffffffffffffffffffffff16021790555050505b62000525826009620006b660201b62001ee51790919060201c565b50507f0553476bf02ef2726e8ce5ced78d63e26e602e4a2257b1f559418e24b463399781836040516200055a92919062000cd0565b60405180910390a15050565b7f08f74ea46ef7894f65eabfb5e6e695de773a000b47c529ab559178069b226401600a60009054906101000a900473ffffffffffffffffffffffffffffffffffffffff1682604051620005bb92919062000e64565b60405180910390a180600a60006101000a81548173ffffffffffffffffffffffffffffffffffffffff021916908373ffffffffffffffffffffffffffffffffffffffff16021790555050565b60006064905090565b600080600960000180549050146200063f57620006396009620008f460201b620020e71760201c565b62000643565b6008545b905090565b60007bffffffffffffffffffffffffffffffffffffffffffffffffffffffff8016821115620006ae576040517f08c379a0000000000000000000000000000000000000000000000000000000008152600401620006a59062000f07565b60405180910390fd5b819050919050565b6000806000846000018054905090506000620006d886620008f460201b60201c565b90506000821180156200073457504386600001600184620006fa919062000f58565b815481106200070e576200070d62000f93565b5b9060005260206000200160000160009054906101000a900463ffffffff1663ffffffff16145b15620007d85762000750856200064860201b62001e7a1760201c565b8660000160018462000763919062000f58565b8154811062000777576200077662000f93565b5b9060005260206000200160000160046101000a8154817bffffffffffffffffffffffffffffffffffffffffffffffffffffffff02191690837bffffffffffffffffffffffffffffffffffffffffffffffffffffffff160217905550620008e5565b856000016040518060400160405280620007fd436200099660201b620021821760201c565b63ffffffff1681526020016200081e886200064860201b62001e7a1760201c565b7bffffffffffffffffffffffffffffffffffffffffffffffffffffffff168152509080600181540180825580915050600190039060005260206000200160009091909190915060008201518160000160006101000a81548163ffffffff021916908363ffffffff16021790555060208201518160000160046101000a8154817bffffffffffffffffffffffffffffffffffffffffffffffffffffffff02191690837bffffffffffffffffffffffffffffffffffffffffffffffffffffffff16021790555050505b80859350935050509250929050565b60008082600001805490509050600081146200096d57826000016001826200091d919062000f58565b8154811062000931576200093062000f93565b5b9060005260206000200160000160049054906101000a90047bffffffffffffffffffffffffffffffffffffffffffffffffffffffff1662000970565b60005b7bffffffffffffffffffffffffffffffffffffffffffffffffffffffff16915050919050565b600063ffffffff8016821115620009e4576040517f08c379a0000000000000000000000000000000000000000000000000000000008152600401620009db9062001038565b60405180910390fd5b819050919050565b828054620009fa9062001089565b90600052602060002090601f01602090048101928262000a1e576000855562000a6a565b82601f1062000a3957805160ff191683800117855562000a6a565b8280016001018555821562000a6a579182015b8281111562000a6957825182559160200191906001019062000a4c565b5b50905062000a79919062000a7d565b5090565b5b8082111562000a9857600081600090555060010162000a7e565b5090565b600080fd5b600073ffffffffffffffffffffffffffffffffffffffff82169050919050565b600062000ace8262000aa1565b9050919050565b600062000ae28262000ac1565b9050919050565b62000af48162000ad5565b811462000b0057600080fd5b50565b60008151905062000b148162000ae9565b92915050565b600062000b278262000aa1565b9050919050565b600062000b3b8262000b1a565b9050919050565b62000b4d8162000b2e565b811462000b5957600080fd5b50565b60008151905062000b6d8162000b42565b92915050565b6000819050919050565b62000b888162000b73565b811462000b9457600080fd5b50565b60008151905062000ba88162000b7d565b92915050565b600080600080600060a0868803121562000bcd5762000bcc62000a9c565b5b600062000bdd8882890162000b03565b955050602062000bf08882890162000b5c565b945050604062000c038882890162000b97565b935050606062000c168882890162000b97565b925050608062000c298882890162000b97565b9150509295509295909350565b6000819050919050565b62000c4b8162000c36565b82525050565b62000c5c8162000b73565b82525050565b62000c6d8162000ac1565b82525050565b600060a08201905062000c8a600083018862000c40565b62000c99602083018762000c40565b62000ca8604083018662000c40565b62000cb7606083018562000c51565b62000cc6608083018462000c62565b9695505050505050565b600060408201905062000ce7600083018562000c51565b62000cf6602083018462000c51565b9392505050565b600082825260208201905092915050565b7f476f7665726e6f7253657474696e67733a20766f74696e6720706572696f642060008201527f746f6f206c6f7700000000000000000000000000000000000000000000000000602082015250565b600062000d6c60278362000cfd565b915062000d798262000d0e565b604082019050919050565b6000602082019050818103600083015262000d9f8162000d5d565b9050919050565b7f476f7665726e6f72566f74657351756f72756d4672616374696f6e3a2071756f60008201527f72756d4e756d657261746f72206f7665722071756f72756d44656e6f6d696e6160208201527f746f720000000000000000000000000000000000000000000000000000000000604082015250565b600062000e2a60438362000cfd565b915062000e378262000da6565b606082019050919050565b6000602082019050818103600083015262000e5d8162000e1b565b9050919050565b600060408201905062000e7b600083018562000c62565b62000e8a602083018462000c62565b9392505050565b7f53616665436173743a2076616c756520646f65736e27742066697420696e203260008201527f3234206269747300000000000000000000000000000000000000000000000000602082015250565b600062000eef60278362000cfd565b915062000efc8262000e91565b604082019050919050565b6000602082019050818103600083015262000f228162000ee0565b9050919050565b7f4e487b7100000000000000000000000000000000000000000000000000000000600052601160045260246000fd5b600062000f658262000b73565b915062000f728362000b73565b92508282101562000f885762000f8762000f29565b5b828203905092915050565b7f4e487b7100000000000000000000000000000000000000000000000000000000600052603260045260246000fd5b7f53616665436173743a2076616c756520646f65736e27742066697420696e203360008201527f3220626974730000000000000000000000000000000000000000000000000000602082015250565b60006200102060268362000cfd565b91506200102d8262000fc2565b604082019050919050565b60006020820190508181036000830152620010538162001011565b9050919050565b7f4e487b7100000000000000000000000000000000000000000000000000000000600052602260045260246000fd5b60006002820490506001821680620010a257607f821691505b60208210811415620010b957620010b86200105a565b5b50919050565b60805160a05160c05160601c60e05161010051610120516101405160601c616b976200112e60003960008181611e5801528181612f4f01526131d2015260006134a7015260006134e9015260006134c8015260006133fd015260006134530152600061347c0152616b976000f3fe60806040526004361061024a5760003560e01c80637b3c71d311610139578063c28bc2fa116100b6578063ea0217cf1161007a578063ea0217cf146109cb578063eb9019d4146109f4578063ece40cc114610a31578063f23a6e6114610a5a578063f8ce560a14610a97578063fc0c546a14610ad457610290565b8063c28bc2fa146108e4578063c59057e41461090d578063d33219b41461094a578063dd4e2ba514610975578063deaaa7cc146109a057610290565b8063a890c910116100fd578063a890c910146107d9578063ab58fb8e14610802578063b58131b01461083f578063bc197c811461086a578063c01f9e37146108a757610290565b80637b3c71d3146106cc5780637d5e81e21461070957806397c3d334146107465780639a802a6d14610771578063a7713a70146107ae57610290565b80633932abb1116101c757806354fd4d501161018b57806354fd4d50146105c157806356781388146105ec5780635f398a141461062957806360c4247f1461066657806370b0f660146106a357610290565b80633932abb1146104a05780633bccf4fd146104cb5780633e4f49e6146105085780634385963214610545578063544ffc9c1461058257610290565b8063150b7a021161020e578063150b7a021461038e578063160cbed7146103cb5780632656227d146104085780632d63f693146104385780632fe3e2611461047557610290565b806301ffc9a71461029557806302a251a3146102d257806303420181146102fd57806306f3f9e61461033a57806306fdde031461036357610290565b36610290573073ffffffffffffffffffffffffffffffffffffffff1661026e610aff565b73ffffffffffffffffffffffffffffffffffffffff161461028e57600080fd5b005b600080fd5b3480156102a157600080fd5b506102bc60048036038101906102b791906140fa565b610b0e565b6040516102c99190614142565b60405180910390f35b3480156102de57600080fd5b506102e7610b20565b6040516102f49190614176565b60405180910390f35b34801561030957600080fd5b50610324600480360381019061031f91906143d2565b610b2f565b6040516103319190614176565b60405180910390f35b34801561034657600080fd5b50610361600480360381019061035c91906144b0565b610c14565b005b34801561036f57600080fd5b50610378610d10565b6040516103859190614565565b60405180910390f35b34801561039a57600080fd5b506103b560048036038101906103b091906145e5565b610da2565b6040516103c29190614677565b60405180910390f35b3480156103d757600080fd5b506103f260048036038101906103ed91906148f9565b610db6565b6040516103ff9190614176565b60405180910390f35b610422600480360381019061041d91906148f9565b61108e565b60405161042f9190614176565b60405180910390f35b34801561044457600080fd5b5061045f600480360381019061045a91906144b0565b6111db565b60405161046c9190614176565b60405180910390f35b34801561048157600080fd5b5061048a611249565b60405161049791906149c3565b60405180910390f35b3480156104ac57600080fd5b506104b561126d565b6040516104c29190614176565b60405180910390f35b3480156104d757600080fd5b506104f260048036038101906104ed91906149de565b61127c565b6040516104ff9190614176565b60405180910390f35b34801561051457600080fd5b5061052f600480360381019061052a91906144b0565b611306565b60405161053c9190614ad0565b60405180910390f35b34801561055157600080fd5b5061056c60048036038101906105679190614aeb565b611318565b6040516105799190614142565b60405180910390f35b34801561058e57600080fd5b506105a960048036038101906105a491906144b0565b611383565b6040516105b893929190614b2b565b60405180910390f35b3480156105cd57600080fd5b506105d66113bb565b6040516105e39190614565565b60405180910390f35b3480156105f857600080fd5b50610613600480360381019061060e9190614b62565b6113f8565b6040516106209190614176565b60405180910390f35b34801561063557600080fd5b50610650600480360381019061064b9190614ba2565b611429565b60405161065d9190614176565b60405180910390f35b34801561067257600080fd5b5061068d600480360381019061068891906144b0565b611493565b60405161069a9190614176565b60405180910390f35b3480156106af57600080fd5b506106ca60048036038101906106c591906144b0565b6115e0565b005b3480156106d857600080fd5b506106f360048036038101906106ee9190614c46565b6116dc565b6040516107009190614176565b60405180910390f35b34801561071557600080fd5b50610730600480360381019061072b9190614d5b565b611744565b60405161073d9190614176565b60405180910390f35b34801561075257600080fd5b5061075b61175c565b6040516107689190614176565b60405180910390f35b34801561077d57600080fd5b5061079860048036038101906107939190614e32565b611765565b6040516107a59190614176565b60405180910390f35b3480156107ba57600080fd5b506107c361177b565b6040516107d09190614176565b60405180910390f35b3480156107e557600080fd5b5061080060048036038101906107fb9190614ef1565b6117a4565b005b34801561080e57600080fd5b50610829600480360381019061082491906144b0565b6118a0565b6040516108369190614176565b60405180910390f35b34801561084b57600080fd5b5061085461197c565b6040516108619190614176565b60405180910390f35b34801561087657600080fd5b50610891600480360381019061088c9190614f1e565b61198b565b60405161089e9190614677565b60405180910390f35b3480156108b357600080fd5b506108ce60048036038101906108c991906144b0565b6119a0565b6040516108db9190614176565b60405180910390f35b3480156108f057600080fd5b5061090b60048036038101906109069190615043565b611a0e565b005b34801561091957600080fd5b50610934600480360381019061092f91906148f9565b611b54565b6040516109419190614176565b60405180910390f35b34801561095657600080fd5b5061095f611b90565b60405161096c91906150c6565b60405180910390f35b34801561098157600080fd5b5061098a611bba565b6040516109979190614565565b60405180910390f35b3480156109ac57600080fd5b506109b5611bf7565b6040516109c291906149c3565b60405180910390f35b3480156109d757600080fd5b506109f260048036038101906109ed91906144b0565b611c1b565b005b348015610a0057600080fd5b50610a1b6004803603810190610a1691906150e1565b611d17565b604051610a289190614176565b60405180910390f35b348015610a3d57600080fd5b50610a586004803603810190610a5391906144b0565b611d33565b005b348015610a6657600080fd5b50610a816004803603810190610a7c9190615121565b611e2f565b604051610a8e9190614677565b60405180910390f35b348015610aa357600080fd5b50610abe6004803603810190610ab991906144b0565b611e44565b604051610acb9190614176565b60405180910390f35b348015610ae057600080fd5b50610ae9611e56565b604051610af69190615217565b60405180910390f35b6000610b096121d5565b905090565b6000610b19826121ff565b9050919050565b6000610b2a612279565b905090565b600080610bb2610baa7fb3b3f3b703cd84ce352197dcff232b1b5d3cfb2025ce47cf04742d0651f1af888c8c8c8c604051610b6b929190615262565b60405180910390208b80519060200120604051602001610b8f95949392919061528a565b60405160208183030381529060405280519060200120612283565b86868661229d565b9050610c058a828b8b8b8080601f016020809104026020016040519081016040528093929190818152602001838380828437600081840152601f19601f820116905080830192505050505050508a6122c8565b91505098975050505050505050565b610c1c610aff565b73ffffffffffffffffffffffffffffffffffffffff16610c3a612485565b73ffffffffffffffffffffffffffffffffffffffff1614610c90576040517f08c379a0000000000000000000000000000000000000000000000000000000008152600401610c8790615329565b60405180910390fd5b3073ffffffffffffffffffffffffffffffffffffffff16610caf610aff565b73ffffffffffffffffffffffffffffffffffffffff1614610d04576000610cd461248d565b604051610ce2929190615262565b604051809103902090505b80610cf8600261249a565b14610d0257610ced565b505b610d0d81612576565b50565b606060008054610d1f90615378565b80601f0160208091040260200160405190810160405280929190818152602001828054610d4b90615378565b8015610d985780601f10610d6d57610100808354040283529160200191610d98565b820191906000526020600020905b815481529060010190602001808311610d7b57829003601f168201915b5050505050905090565b600063150b7a0260e01b9050949350505050565b600080610dc586868686611b54565b905060046007811115610ddb57610dda614a59565b5b610de482611306565b6007811115610df657610df5614a59565b5b14610e36576040517f08c379a0000000000000000000000000000000000000000000000000000000008152600401610e2d9061541c565b60405180910390fd5b6000600a60009054906101000a900473ffffffffffffffffffffffffffffffffffffffff1673ffffffffffffffffffffffffffffffffffffffff1663f27a0c926040518163ffffffff1660e01b815260040160206040518083038186803b158015610ea057600080fd5b505afa158015610eb4573d6000803e3d6000fd5b505050506040513d601f19601f82011682018060405250810190610ed89190615451565b9050600a60009054906101000a900473ffffffffffffffffffffffffffffffffffffffff1673ffffffffffffffffffffffffffffffffffffffff1663b1c5f4278888886000896040518663ffffffff1660e01b8152600401610f3e959493929190615759565b60206040518083038186803b158015610f5657600080fd5b505afa158015610f6a573d6000803e3d6000fd5b505050506040513d601f19601f82011682018060405250810190610f8e91906157d6565b600b600084815260200190815260200160002081905550600a60009054906101000a900473ffffffffffffffffffffffffffffffffffffffff1673ffffffffffffffffffffffffffffffffffffffff16638f2a0bb0888888600089876040518763ffffffff1660e01b815260040161100b96959493929190615803565b600060405180830381600087803b15801561102557600080fd5b505af1158015611039573d6000803e3d6000fd5b505050507f9a2e42fd6722813d69113e7d0079d3d940171428df7373df9c7f7617cfda289282824261106b91906158a8565b6040516110799291906158fe565b60405180910390a18192505050949350505050565b60008061109d86868686611b54565b905060006110aa82611306565b9050600460078111156110c0576110bf614a59565b5b8160078111156110d3576110d2614a59565b5b14806111035750600560078111156110ee576110ed614a59565b5b81600781111561110157611100614a59565b5b145b611142576040517f08c379a00000000000000000000000000000000000000000000000000000000081526004016111399061541c565b60405180910390fd5b600180600084815260200190815260200160002060020160006101000a81548160ff0219169083151502179055507f712ae1383f79ac853f8d882153778e0260ef8f03b504e2866e0593e04d2b291f8260405161119f9190614176565b60405180910390a16111b4828888888861272a565b6111c1828888888861280e565b6111ce8288888888612822565b8192505050949350505050565b6000611238600160008481526020019081526020016000206000016040518060200160405290816000820160009054906101000a900467ffffffffffffffff1667ffffffffffffffff1667ffffffffffffffff168152505061287d565b67ffffffffffffffff169050919050565b7fb3b3f3b703cd84ce352197dcff232b1b5d3cfb2025ce47cf04742d0651f1af8881565b600061127761288b565b905090565b6000806112dd6112d57f150214d74d59b7d1e90c73fc22ef3d991dd0a76b046543d4d80ab92d2a50328f89896040516020016112ba93929190615927565b60405160208183030381529060405280519060200120612283565b86868661229d565b90506112fa87828860405180602001604052806000815250612895565b91505095945050505050565b6000611311826128b5565b9050919050565b60006007600084815260200190815260200160002060030160008373ffffffffffffffffffffffffffffffffffffffff1673ffffffffffffffffffffffffffffffffffffffff16815260200190815260200160002060009054906101000a900460ff16905092915050565b600080600080600760008681526020019081526020016000209050806000015481600101548260020154935093509350509193909250565b60606040518060400160405280600181526020017f3100000000000000000000000000000000000000000000000000000000000000815250905090565b600080611403612485565b905061142084828560405180602001604052806000815250612895565b91505092915050565b600080611434612485565b905061148787828888888080601f016020809104026020016040519081016040528093929190818152602001838380828437600081840152601f19601f82011690508083019250505050505050876122c8565b91505095945050505050565b600080600960000180549050905060008114156114b5576008549150506115db565b600060096000016001836114c9919061595e565b815481106114da576114d9615992565b5b906000526020600020016040518060400160405290816000820160009054906101000a900463ffffffff1663ffffffff1663ffffffff1681526020016000820160049054906101000a90047bffffffffffffffffffffffffffffffffffffffffffffffffffffffff167bffffffffffffffffffffffffffffffffffffffffffffffffffffffff167bffffffffffffffffffffffffffffffffffffffffffffffffffffffff1681525050905083816000015163ffffffff16116115c25780602001517bffffffffffffffffffffffffffffffffffffffffffffffffffffffff16925050506115db565b6115d6846009612aa790919063ffffffff16565b925050505b919050565b6115e8610aff565b73ffffffffffffffffffffffffffffffffffffffff16611606612485565b73ffffffffffffffffffffffffffffffffffffffff161461165c576040517f08c379a000000000000000000000000000000000000000000000000000000000815260040161165390615329565b60405180910390fd5b3073ffffffffffffffffffffffffffffffffffffffff1661167b610aff565b73ffffffffffffffffffffffffffffffffffffffff16146116d05760006116a061248d565b6040516116ae929190615262565b604051809103902090505b806116c4600261249a565b146116ce576116b9565b505b6116d981612bff565b50565b6000806116e7612485565b905061173986828787878080601f016020809104026020016040519081016040528093929190818152602001838380828437600081840152601f19601f82011690508083019250505050505050612895565b915050949350505050565b600061175285858585612c44565b9050949350505050565b60006064905090565b6000611772848484612f4b565b90509392505050565b6000806009600001805490501461179b5761179660096120e7565b61179f565b6008545b905090565b6117ac610aff565b73ffffffffffffffffffffffffffffffffffffffff166117ca612485565b73ffffffffffffffffffffffffffffffffffffffff1614611820576040517f08c379a000000000000000000000000000000000000000000000000000000000815260040161181790615329565b60405180910390fd5b3073ffffffffffffffffffffffffffffffffffffffff1661183f610aff565b73ffffffffffffffffffffffffffffffffffffffff161461189457600061186461248d565b604051611872929190615262565b604051809103902090505b80611888600261249a565b146118925761187d565b505b61189d81613001565b50565b600080600a60009054906101000a900473ffffffffffffffffffffffffffffffffffffffff1673ffffffffffffffffffffffffffffffffffffffff1663d45c4435600b6000868152602001908152602001600020546040518263ffffffff1660e01b815260040161191191906149c3565b60206040518083038186803b15801561192957600080fd5b505afa15801561193d573d6000803e3d6000fd5b505050506040513d601f19601f820116820180604052508101906119619190615451565b9050600181146119715780611974565b60005b915050919050565b60006119866130a0565b905090565b600063bc197c8160e01b905095945050505050565b60006119fd600160008481526020019081526020016000206001016040518060200160405290816000820160009054906101000a900467ffffffffffffffff1667ffffffffffffffff1667ffffffffffffffff168152505061287d565b67ffffffffffffffff169050919050565b611a16610aff565b73ffffffffffffffffffffffffffffffffffffffff16611a34612485565b73ffffffffffffffffffffffffffffffffffffffff1614611a8a576040517f08c379a0000000000000000000000000000000000000000000000000000000008152600401611a8190615329565b60405180910390fd5b3073ffffffffffffffffffffffffffffffffffffffff16611aa9610aff565b73ffffffffffffffffffffffffffffffffffffffff1614611afe576000611ace61248d565b604051611adc929190615262565b604051809103902090505b80611af2600261249a565b14611afc57611ae7565b505b611b4d8483838080601f016020809104026020016040519081016040528093929190818152602001838380828437600081840152601f19601f82011690508083019250505050505050856130aa565b5050505050565b600084848484604051602001611b6d94939291906159c1565b6040516020818303038152906040528051906020012060001c9050949350505050565b6000600a60009054906101000a900473ffffffffffffffffffffffffffffffffffffffff16905090565b60606040518060400160405280602081526020017f737570706f72743d627261766f2671756f72756d3d666f722c6162737461696e815250905090565b7f150214d74d59b7d1e90c73fc22ef3d991dd0a76b046543d4d80ab92d2a50328f81565b611c23610aff565b73ffffffffffffffffffffffffffffffffffffffff16611c41612485565b73ffffffffffffffffffffffffffffffffffffffff1614611c97576040517f08c379a0000000000000000000000000000000000000000000000000000000008152600401611c8e90615329565b60405180910390fd5b3073ffffffffffffffffffffffffffffffffffffffff16611cb6610aff565b73ffffffffffffffffffffffffffffffffffffffff1614611d0b576000611cdb61248d565b604051611ce9929190615262565b604051809103902090505b80611cff600261249a565b14611d0957611cf4565b505b611d14816130d9565b50565b6000611d2b8383611d26613161565b612f4b565b905092915050565b611d3b610aff565b73ffffffffffffffffffffffffffffffffffffffff16611d59612485565b73ffffffffffffffffffffffffffffffffffffffff1614611daf576040517f08c379a0000000000000000000000000000000000000000000000000000000008152600401611da690615329565b60405180910390fd5b3073ffffffffffffffffffffffffffffffffffffffff16611dce610aff565b73ffffffffffffffffffffffffffffffffffffffff1614611e23576000611df361248d565b604051611e01929190615262565b604051809103902090505b80611e17600261249a565b14611e2157611e0c565b505b611e2c81613178565b50565b600063f23a6e6160e01b905095945050505050565b6000611e4f826131bd565b9050919050565b7f000000000000000000000000000000000000000000000000000000000000000081565b60007bffffffffffffffffffffffffffffffffffffffffffffffffffffffff8016821115611edd576040517f08c379a0000000000000000000000000000000000000000000000000000000008152600401611ed490615a8d565b60405180910390fd5b819050919050565b6000806000846000018054905090506000611eff866120e7565b9050600082118015611f5557504386600001600184611f1e919061595e565b81548110611f2f57611f2e615992565b5b9060005260206000200160000160009054906101000a900463ffffffff1663ffffffff16145b15611fe557611f6385611e7a565b86600001600184611f74919061595e565b81548110611f8557611f84615992565b5b9060005260206000200160000160046101000a8154817bffffffffffffffffffffffffffffffffffffffffffffffffffffffff02191690837bffffffffffffffffffffffffffffffffffffffffffffffffffffffff1602179055506120d8565b856000016040518060400160405280611ffd43612182565b63ffffffff16815260200161201188611e7a565b7bffffffffffffffffffffffffffffffffffffffffffffffffffffffff168152509080600181540180825580915050600190039060005260206000200160009091909190915060008201518160000160006101000a81548163ffffffff021916908363ffffffff16021790555060208201518160000160046101000a8154817bffffffffffffffffffffffffffffffffffffffffffffffffffffffff02191690837bffffffffffffffffffffffffffffffffffffffffffffffffffffffff16021790555050505b80859350935050509250929050565b6000808260000180549050905060008114612159578260000160018261210d919061595e565b8154811061211e5761211d615992565b5b9060005260206000200160000160049054906101000a90047bffffffffffffffffffffffffffffffffffffffffffffffffffffffff1661215c565b60005b7bffffffffffffffffffffffffffffffffffffffffffffffffffffffff16915050919050565b600063ffffffff80168211156121cd576040517f08c379a00000000000000000000000000000000000000000000000000000000081526004016121c490615b1f565b60405180910390fd5b819050919050565b6000600a60009054906101000a900473ffffffffffffffffffffffffffffffffffffffff16905090565b60007f6e665ced000000000000000000000000000000000000000000000000000000007bffffffffffffffffffffffffffffffffffffffffffffffffffffffff1916827bffffffffffffffffffffffffffffffffffffffffffffffffffffffff19161480612272575061227182613294565b5b9050919050565b6000600554905090565b60006122966122906133f9565b83613513565b9050919050565b60008060006122ae87878787613546565b915091506122bb81613653565b8192505050949350505050565b600080600160008881526020019081526020016000209050600160078111156122f4576122f3614a59565b5b6122fd88611306565b600781111561230f5761230e614a59565b5b1461234f576040517f08c379a000000000000000000000000000000000000000000000000000000000815260040161234690615bb1565b60405180910390fd5b60006123ae8761239e846000016040518060200160405290816000820160009054906101000a900467ffffffffffffffff1667ffffffffffffffff1667ffffffffffffffff168152505061287d565b67ffffffffffffffff1686612f4b565b90506123bd8888888488613828565b600084511415612420578673ffffffffffffffffffffffffffffffffffffffff167fb8e138887d0aa13bab447e82de9d5c1777041ecd21ca36ba824ff1e6c07ddda4898884896040516124139493929190615bd1565b60405180910390a2612477565b8673ffffffffffffffffffffffffffffffffffffffff167fe2babfbac5889a709b63bb7f598b324e08bc5a4fb9ec647fb3cbc9ec07eb8712898884898960405161246e959493929190615c67565b60405180910390a25b809250505095945050505050565b600033905090565b3660008036915091509091565b60006124a582613a2f565b156124dc576040517f3db2a12a00000000000000000000000000000000000000000000000000000000815260040160405180910390fd5b60008260000160009054906101000a9004600f0b905082600101600082600f0b600f0b815260200190815260200160002054915082600101600082600f0b600f0b815260200190815260200160002060009055600181018360000160006101000a8154816fffffffffffffffffffffffffffffffff0219169083600f0b6fffffffffffffffffffffffffffffffff16021790555050919050565b61257e61175c565b8111156125c0576040517f08c379a00000000000000000000000000000000000000000000000000000000081526004016125b790615d60565b60405180910390fd5b60006125ca61177b565b9050600081141580156125e557506000600960000180549050145b156126d75760096000016040518060400160405280600063ffffffff16815260200161261084611e7a565b7bffffffffffffffffffffffffffffffffffffffffffffffffffffffff168152509080600181540180825580915050600190039060005260206000200160009091909190915060008201518160000160006101000a81548163ffffffff021916908363ffffffff16021790555060208201518160000160046101000a8154817bffffffffffffffffffffffffffffffffffffffffffffffffffffffff02191690837bffffffffffffffffffffffffffffffffffffffffffffffffffffffff16021790555050505b6126eb826009611ee590919063ffffffff16565b50507f0553476bf02ef2726e8ce5ced78d63e26e602e4a2257b1f559418e24b4633997818360405161271e9291906158fe565b60405180910390a15050565b3073ffffffffffffffffffffffffffffffffffffffff16612749610aff565b73ffffffffffffffffffffffffffffffffffffffff16146128075760005b8451811015612805573073ffffffffffffffffffffffffffffffffffffffff1685828151811061279a57612799615992565b5b602002602001015173ffffffffffffffffffffffffffffffffffffffff1614156127f4576127f38382815181106127d4576127d3615992565b5b6020026020010151805190602001206002613a6490919063ffffffff16565b5b806127fe90615d80565b9050612767565b505b5050505050565b61281b8585858585613ae0565b5050505050565b3073ffffffffffffffffffffffffffffffffffffffff16612841610aff565b73ffffffffffffffffffffffffffffffffffffffff1614612876576128666002613a2f565b612875576128746002613b7e565b5b5b5050505050565b600081600001519050919050565b6000600454905090565b60006128ab858585856128a6613161565b6122c8565b9050949350505050565b6000806128c183613bff565b9050600460078111156128d7576128d6614a59565b5b8160078111156128ea576128e9614a59565b5b146128f85780915050612aa2565b6000600b60008581526020019081526020016000205490506000801b811415612925578192505050612aa2565b600a60009054906101000a900473ffffffffffffffffffffffffffffffffffffffff1673ffffffffffffffffffffffffffffffffffffffff16632ab0f529826040518263ffffffff1660e01b815260040161298091906149c3565b60206040518083038186803b15801561299857600080fd5b505afa1580156129ac573d6000803e3d6000fd5b505050506040513d601f19601f820116820180604052508101906129d09190615df5565b156129e057600792505050612aa2565b600a60009054906101000a900473ffffffffffffffffffffffffffffffffffffffff1673ffffffffffffffffffffffffffffffffffffffff1663584b153e826040518263ffffffff1660e01b8152600401612a3b91906149c3565b60206040518083038186803b158015612a5357600080fd5b505afa158015612a67573d6000803e3d6000fd5b505050506040513d601f19601f82011682018060405250810190612a8b9190615df5565b15612a9b57600592505050612aa2565b6002925050505b919050565b6000438210612aeb576040517f08c379a0000000000000000000000000000000000000000000000000000000008152600401612ae290615e6e565b60405180910390fd5b60008360000180549050905060005b81811015612b6f576000612b0e8284613d14565b905084866000018281548110612b2757612b26615992565b5b9060005260206000200160000160009054906101000a900463ffffffff1663ffffffff161115612b5957809250612b69565b600181612b6691906158a8565b91505b50612afa565b60008214612bd45784600001600183612b88919061595e565b81548110612b9957612b98615992565b5b9060005260206000200160000160049054906101000a90047bffffffffffffffffffffffffffffffffffffffffffffffffffffffff16612bd7565b60005b7bffffffffffffffffffffffffffffffffffffffffffffffffffffffff169250505092915050565b7fc565b045403dc03c2eea82b81a0465edad9e2e7fc4d97e11421c209da93d7a9360045482604051612c329291906158fe565b60405180910390a18060048190555050565b6000612c4e61197c565b612c6b612c59612485565b600143612c66919061595e565b611d17565b1015612cac576040517f08c379a0000000000000000000000000000000000000000000000000000000008152600401612ca390615f00565b60405180910390fd5b6000612cc18686868680519060200120611b54565b90508451865114612d07576040517f08c379a0000000000000000000000000000000000000000000000000000000008152600401612cfe90615f92565b60405180910390fd5b8351865114612d4b576040517f08c379a0000000000000000000000000000000000000000000000000000000008152600401612d4290615f92565b60405180910390fd5b6000865111612d8f576040517f08c379a0000000000000000000000000000000000000000000000000000000008152600401612d8690615ffe565b60405180910390fd5b6000600160008381526020019081526020016000209050612def816000016040518060200160405290816000820160009054906101000a900467ffffffffffffffff1667ffffffffffffffff1667ffffffffffffffff1681525050613d3a565b612e2e576040517f08c379a0000000000000000000000000000000000000000000000000000000008152600401612e2590616090565b60405180910390fd5b6000612e40612e3b61126d565b613d54565b612e4943613d54565b612e5391906160c4565b90506000612e67612e62610b20565b613d54565b82612e7291906160c4565b9050612e8a8284600001613dab90919063ffffffff16565b612ea08184600101613dab90919063ffffffff16565b7f7d84a6263ae0d98d3329bd7b46bb4e8d6f98cd35a7adb45c274c8b7fd5ebd5e084612eca612485565b8b8b8d5167ffffffffffffffff811115612ee757612ee6614271565b5b604051908082528060200260200182016040528015612f1a57816020015b6060815260200190600190039081612f055790505b508c88888e604051612f349998979695949392919061623f565b60405180910390a183945050505050949350505050565b60007f000000000000000000000000000000000000000000000000000000000000000073ffffffffffffffffffffffffffffffffffffffff16633a46b1a885856040518363ffffffff1660e01b8152600401612fa89291906162ef565b60206040518083038186803b158015612fc057600080fd5b505afa158015612fd4573d6000803e3d6000fd5b505050506040513d601f19601f82011682018060405250810190612ff89190615451565b90509392505050565b7f08f74ea46ef7894f65eabfb5e6e695de773a000b47c529ab559178069b226401600a60009054906101000a900473ffffffffffffffffffffffffffffffffffffffff1682604051613054929190616318565b60405180910390a180600a60006101000a81548173ffffffffffffffffffffffffffffffffffffffff021916908373ffffffffffffffffffffffffffffffffffffffff16021790555050565b6000600654905090565b60606130d0848484604051806060016040528060298152602001616b3960299139613dda565b90509392505050565b6000811161311c576040517f08c379a0000000000000000000000000000000000000000000000000000000008152600401613113906163b3565b60405180910390fd5b7f7e3f7f0708a84de9203036abaa450dccc85ad5ff52f78c170f3edb55cf5e88286005548260405161314f9291906158fe565b60405180910390a18060058190555050565b606060405180602001604052806000815250905090565b7fccb45da8d5717e6c4544694297c4ba5cf151d455c9bb0ed4fc7a38411bc05461600654826040516131ab9291906158fe565b60405180910390a18060068190555050565b60006131c761175c565b6131d083611493565b7f000000000000000000000000000000000000000000000000000000000000000073ffffffffffffffffffffffffffffffffffffffff16638e539e8c856040518263ffffffff1660e01b81526004016132299190614176565b60206040518083038186803b15801561324157600080fd5b505afa158015613255573d6000803e3d6000fd5b505050506040513d601f19601f820116820180604052508101906132799190615451565b61328391906163d3565b61328d919061645c565b9050919050565b6000639a802a6d60e01b630342018160e01b635f398a1460e01b7f79dd796f000000000000000000000000000000000000000000000000000000001818187bffffffffffffffffffffffffffffffffffffffffffffffffffffffff1916827bffffffffffffffffffffffffffffffffffffffffffffffffffffffff1916148061337a57507f79dd796f000000000000000000000000000000000000000000000000000000007bffffffffffffffffffffffffffffffffffffffffffffffffffffffff1916827bffffffffffffffffffffffffffffffffffffffffffffffffffffffff1916145b806133e257507f4e2312e0000000000000000000000000000000000000000000000000000000007bffffffffffffffffffffffffffffffffffffffffffffffffffffffff1916827bffffffffffffffffffffffffffffffffffffffffffffffffffffffff1916145b806133f257506133f182613eee565b5b9050919050565b60007f000000000000000000000000000000000000000000000000000000000000000073ffffffffffffffffffffffffffffffffffffffff163073ffffffffffffffffffffffffffffffffffffffff1614801561347557507f000000000000000000000000000000000000000000000000000000000000000046145b156134a2577f00000000000000000000000000000000000000000000000000000000000000009050613510565b61350d7f00000000000000000000000000000000000000000000000000000000000000007f00000000000000000000000000000000000000000000000000000000000000007f0000000000000000000000000000000000000000000000000000000000000000613f58565b90505b90565b60008282604051602001613528929190616505565b60405160208183030381529060405280519060200120905092915050565b6000807f7fffffffffffffffffffffffffffffff5d576e7357a4501ddfe92f46681b20a08360001c111561358157600060039150915061364a565b601b8560ff16141580156135995750601c8560ff1614155b156135ab57600060049150915061364a565b6000600187878787604051600081526020016040526040516135d0949392919061653c565b6020604051602081039080840390855afa1580156135f2573d6000803e3d6000fd5b505050602060405103519050600073ffffffffffffffffffffffffffffffffffffffff168173ffffffffffffffffffffffffffffffffffffffff1614156136415760006001925092505061364a565b80600092509250505b94509492505050565b6000600481111561366757613666614a59565b5b81600481111561367a57613679614a59565b5b141561368557613825565b6001600481111561369957613698614a59565b5b8160048111156136ac576136ab614a59565b5b14156136ed576040517f08c379a00000000000000000000000000000000000000000000000000000000081526004016136e4906165cd565b60405180910390fd5b6002600481111561370157613700614a59565b5b81600481111561371457613713614a59565b5b1415613755576040517f08c379a000000000000000000000000000000000000000000000000000000000815260040161374c90616639565b60405180910390fd5b6003600481111561376957613768614a59565b5b81600481111561377c5761377b614a59565b5b14156137bd576040517f08c379a00000000000000000000000000000000000000000000000000000000081526004016137b4906166cb565b60405180910390fd5b6004808111156137d0576137cf614a59565b5b8160048111156137e3576137e2614a59565b5b1415613824576040517f08c379a000000000000000000000000000000000000000000000000000000000815260040161381b9061675d565b60405180910390fd5b5b50565b60006007600087815260200190815260200160002090508060030160008673ffffffffffffffffffffffffffffffffffffffff1673ffffffffffffffffffffffffffffffffffffffff16815260200190815260200160002060009054906101000a900460ff16156138ce576040517f08c379a00000000000000000000000000000000000000000000000000000000081526004016138c5906167ef565b60405180910390fd5b60018160030160008773ffffffffffffffffffffffffffffffffffffffff1673ffffffffffffffffffffffffffffffffffffffff16815260200190815260200160002060006101000a81548160ff0219169083151502179055506000600281111561393c5761393b614a59565b5b60ff168460ff161415613969578281600001600082825461395d91906158a8565b92505081905550613a27565b6001600281111561397d5761397c614a59565b5b60ff168460ff1614156139aa578281600101600082825461399e91906158a8565b92505081905550613a26565b6002808111156139bd576139bc614a59565b5b60ff168460ff1614156139ea57828160020160008282546139de91906158a8565b92505081905550613a25565b6040517f08c379a0000000000000000000000000000000000000000000000000000000008152600401613a1c90616881565b60405180910390fd5b5b5b505050505050565b60008160000160009054906101000a9004600f0b600f0b8260000160109054906101000a9004600f0b600f0b13159050919050565b60008260000160109054906101000a9004600f0b90508183600101600083600f0b600f0b815260200190815260200160002081905550600181018360000160106101000a8154816fffffffffffffffffffffffffffffffff0219169083600f0b6fffffffffffffffffffffffffffffffff160217905550505050565b600a60009054906101000a900473ffffffffffffffffffffffffffffffffffffffff1673ffffffffffffffffffffffffffffffffffffffff1663e38335e5348686866000876040518763ffffffff1660e01b8152600401613b45959493929190615759565b6000604051808303818588803b158015613b5e57600080fd5b505af1158015613b72573d6000803e3d6000fd5b50505050505050505050565b60008160000160006101000a8154816fffffffffffffffffffffffffffffffff0219169083600f0b6fffffffffffffffffffffffffffffffff16021790555060008160000160106101000a8154816fffffffffffffffffffffffffffffffff0219169083600f0b6fffffffffffffffffffffffffffffffff16021790555050565b6000806001600084815260200190815260200160002090508060020160009054906101000a900460ff1615613c38576007915050613d0f565b8060020160019054906101000a900460ff1615613c59576002915050613d0f565b6000613c64846111db565b90506000811415613caa576040517f08c379a0000000000000000000000000000000000000000000000000000000008152600401613ca1906168ed565b60405180910390fd5b438110613cbc57600092505050613d0f565b6000613cc7856119a0565b9050438110613cdc5760019350505050613d0f565b613ce585613f92565b8015613cf65750613cf585613fd9565b5b15613d075760049350505050613d0f565b600393505050505b919050565b60006002828418613d25919061645c565b828416613d3291906158a8565b905092915050565b600080826000015167ffffffffffffffff16149050919050565b600067ffffffffffffffff8016821115613da3576040517f08c379a0000000000000000000000000000000000000000000000000000000008152600401613d9a9061697f565b60405180910390fd5b819050919050565b808260000160006101000a81548167ffffffffffffffff021916908367ffffffffffffffff1602179055505050565b606082471015613e1f576040517f08c379a0000000000000000000000000000000000000000000000000000000008152600401613e1690616a11565b60405180910390fd5b613e2885614004565b613e67576040517f08c379a0000000000000000000000000000000000000000000000000000000008152600401613e5e90616a7d565b60405180910390fd5b6000808673ffffffffffffffffffffffffffffffffffffffff168587604051613e909190616ace565b60006040518083038185875af1925050503d8060008114613ecd576040519150601f19603f3d011682016040523d82523d6000602084013e613ed2565b606091505b5091509150613ee2828286614027565b92505050949350505050565b60007f01ffc9a7000000000000000000000000000000000000000000000000000000007bffffffffffffffffffffffffffffffffffffffffffffffffffffffff1916827bffffffffffffffffffffffffffffffffffffffffffffffffffffffff1916149050919050565b60008383834630604051602001613f73959493929190616ae5565b6040516020818303038152906040528051906020012090509392505050565b60008060076000848152602001908152602001600020905080600201548160010154613fbe91906158a8565b613fcf613fca856111db565b611e44565b1115915050919050565b6000806007600084815260200190815260200160002090508060000154816001015411915050919050565b6000808273ffffffffffffffffffffffffffffffffffffffff163b119050919050565b6060831561403757829050614087565b60008351111561404a5782518084602001fd5b816040517f08c379a000000000000000000000000000000000000000000000000000000000815260040161407e9190614565565b60405180910390fd5b9392505050565b6000604051905090565b600080fd5b600080fd5b60007fffffffff0000000000000000000000000000000000000000000000000000000082169050919050565b6140d7816140a2565b81146140e257600080fd5b50565b6000813590506140f4816140ce565b92915050565b6000602082840312156141105761410f614098565b5b600061411e848285016140e5565b91505092915050565b60008115159050919050565b61413c81614127565b82525050565b60006020820190506141576000830184614133565b92915050565b6000819050919050565b6141708161415d565b82525050565b600060208201905061418b6000830184614167565b92915050565b61419a8161415d565b81146141a557600080fd5b50565b6000813590506141b781614191565b92915050565b600060ff82169050919050565b6141d3816141bd565b81146141de57600080fd5b50565b6000813590506141f0816141ca565b92915050565b600080fd5b600080fd5b600080fd5b60008083601f84011261421b5761421a6141f6565b5b8235905067ffffffffffffffff811115614238576142376141fb565b5b60208301915083600182028301111561425457614253614200565b5b9250929050565b600080fd5b6000601f19601f8301169050919050565b7f4e487b7100000000000000000000000000000000000000000000000000000000600052604160045260246000fd5b6142a982614260565b810181811067ffffffffffffffff821117156142c8576142c7614271565b5b80604052505050565b60006142db61408e565b90506142e782826142a0565b919050565b600067ffffffffffffffff82111561430757614306614271565b5b61431082614260565b9050602081019050919050565b82818337600083830152505050565b600061433f61433a846142ec565b6142d1565b90508281526020810184848401111561435b5761435a61425b565b5b61436684828561431d565b509392505050565b600082601f830112614383576143826141f6565b5b813561439384826020860161432c565b91505092915050565b6000819050919050565b6143af8161439c565b81146143ba57600080fd5b50565b6000813590506143cc816143a6565b92915050565b60008060008060008060008060e0898b0312156143f2576143f1614098565b5b60006144008b828c016141a8565b98505060206144118b828c016141e1565b975050604089013567ffffffffffffffff8111156144325761443161409d565b5b61443e8b828c01614205565b9650965050606089013567ffffffffffffffff8111156144615761446061409d565b5b61446d8b828c0161436e565b945050608061447e8b828c016141e1565b93505060a061448f8b828c016143bd565b92505060c06144a08b828c016143bd565b9150509295985092959890939650565b6000602082840312156144c6576144c5614098565b5b60006144d4848285016141a8565b91505092915050565b600081519050919050565b600082825260208201905092915050565b60005b838110156145175780820151818401526020810190506144fc565b83811115614526576000848401525b50505050565b6000614537826144dd565b61454181856144e8565b93506145518185602086016144f9565b61455a81614260565b840191505092915050565b6000602082019050818103600083015261457f818461452c565b905092915050565b600073ffffffffffffffffffffffffffffffffffffffff82169050919050565b60006145b282614587565b9050919050565b6145c2816145a7565b81146145cd57600080fd5b50565b6000813590506145df816145b9565b92915050565b600080600080608085870312156145ff576145fe614098565b5b600061460d878288016145d0565b945050602061461e878288016145d0565b935050604061462f878288016141a8565b925050606085013567ffffffffffffffff8111156146505761464f61409d565b5b61465c8782880161436e565b91505092959194509250565b614671816140a2565b82525050565b600060208201905061468c6000830184614668565b92915050565b600067ffffffffffffffff8211156146ad576146ac614271565b5b602082029050602081019050919050565b60006146d16146cc84614692565b6142d1565b905080838252602082019050602084028301858111156146f4576146f3614200565b5b835b8181101561471d578061470988826145d0565b8452602084019350506020810190506146f6565b5050509392505050565b600082601f83011261473c5761473b6141f6565b5b813561474c8482602086016146be565b91505092915050565b600067ffffffffffffffff8211156147705761476f614271565b5b602082029050602081019050919050565b600061479461478f84614755565b6142d1565b905080838252602082019050602084028301858111156147b7576147b6614200565b5b835b818110156147e057806147cc88826141a8565b8452602084019350506020810190506147b9565b5050509392505050565b600082601f8301126147ff576147fe6141f6565b5b813561480f848260208601614781565b91505092915050565b600067ffffffffffffffff82111561483357614832614271565b5b602082029050602081019050919050565b600061485761485284614818565b6142d1565b9050808382526020820190506020840283018581111561487a57614879614200565b5b835b818110156148c157803567ffffffffffffffff81111561489f5761489e6141f6565b5b8086016148ac898261436e565b8552602085019450505060208101905061487c565b5050509392505050565b600082601f8301126148e0576148df6141f6565b5b81356148f0848260208601614844565b91505092915050565b6000806000806080858703121561491357614912614098565b5b600085013567ffffffffffffffff8111156149315761493061409d565b5b61493d87828801614727565b945050602085013567ffffffffffffffff81111561495e5761495d61409d565b5b61496a878288016147ea565b935050604085013567ffffffffffffffff81111561498b5761498a61409d565b5b614997878288016148cb565b92505060606149a8878288016143bd565b91505092959194509250565b6149bd8161439c565b82525050565b60006020820190506149d860008301846149b4565b92915050565b600080600080600060a086880312156149fa576149f9614098565b5b6000614a08888289016141a8565b9550506020614a19888289016141e1565b9450506040614a2a888289016141e1565b9350506060614a3b888289016143bd565b9250506080614a4c888289016143bd565b9150509295509295909350565b7f4e487b7100000000000000000000000000000000000000000000000000000000600052602160045260246000fd5b60088110614a9957614a98614a59565b5b50565b6000819050614aaa82614a88565b919050565b6000614aba82614a9c565b9050919050565b614aca81614aaf565b82525050565b6000602082019050614ae56000830184614ac1565b92915050565b60008060408385031215614b0257614b01614098565b5b6000614b10858286016141a8565b9250506020614b21858286016145d0565b9150509250929050565b6000606082019050614b406000830186614167565b614b4d6020830185614167565b614b5a6040830184614167565b949350505050565b60008060408385031215614b7957614b78614098565b5b6000614b87858286016141a8565b9250506020614b98858286016141e1565b9150509250929050565b600080600080600060808688031215614bbe57614bbd614098565b5b6000614bcc888289016141a8565b9550506020614bdd888289016141e1565b945050604086013567ffffffffffffffff811115614bfe57614bfd61409d565b5b614c0a88828901614205565b9350935050606086013567ffffffffffffffff811115614c2d57614c2c61409d565b5b614c398882890161436e565b9150509295509295909350565b60008060008060608587031215614c6057614c5f614098565b5b6000614c6e878288016141a8565b9450506020614c7f878288016141e1565b935050604085013567ffffffffffffffff811115614ca057614c9f61409d565b5b614cac87828801614205565b925092505092959194509250565b600067ffffffffffffffff821115614cd557614cd4614271565b5b614cde82614260565b9050602081019050919050565b6000614cfe614cf984614cba565b6142d1565b905082815260208101848484011115614d1a57614d1961425b565b5b614d2584828561431d565b509392505050565b600082601f830112614d4257614d416141f6565b5b8135614d52848260208601614ceb565b91505092915050565b60008060008060808587031215614d7557614d74614098565b5b600085013567ffffffffffffffff811115614d9357614d9261409d565b5b614d9f87828801614727565b945050602085013567ffffffffffffffff811115614dc057614dbf61409d565b5b614dcc878288016147ea565b935050604085013567ffffffffffffffff811115614ded57614dec61409d565b5b614df9878288016148cb565b925050606085013567ffffffffffffffff811115614e1a57614e1961409d565b5b614e2687828801614d2d565b91505092959194509250565b600080600060608486031215614e4b57614e4a614098565b5b6000614e59868287016145d0565b9350506020614e6a868287016141a8565b925050604084013567ffffffffffffffff811115614e8b57614e8a61409d565b5b614e978682870161436e565b9150509250925092565b6000614eac82614587565b9050919050565b6000614ebe82614ea1565b9050919050565b614ece81614eb3565b8114614ed957600080fd5b50565b600081359050614eeb81614ec5565b92915050565b600060208284031215614f0757614f06614098565b5b6000614f1584828501614edc565b91505092915050565b600080600080600060a08688031215614f3a57614f39614098565b5b6000614f48888289016145d0565b9550506020614f59888289016145d0565b945050604086013567ffffffffffffffff811115614f7a57614f7961409d565b5b614f86888289016147ea565b935050606086013567ffffffffffffffff811115614fa757614fa661409d565b5b614fb3888289016147ea565b925050608086013567ffffffffffffffff811115614fd457614fd361409d565b5b614fe08882890161436e565b9150509295509295909350565b60008083601f840112615003576150026141f6565b5b8235905067ffffffffffffffff8111156150205761501f6141fb565b5b60208301915083600182028301111561503c5761503b614200565b5b9250929050565b6000806000806060858703121561505d5761505c614098565b5b600061506b878288016145d0565b945050602061507c878288016141a8565b935050604085013567ffffffffffffffff81111561509d5761509c61409d565b5b6150a987828801614fed565b925092505092959194509250565b6150c0816145a7565b82525050565b60006020820190506150db60008301846150b7565b92915050565b600080604083850312156150f8576150f7614098565b5b6000615106858286016145d0565b9250506020615117858286016141a8565b9150509250929050565b600080600080600060a0868803121561513d5761513c614098565b5b600061514b888289016145d0565b955050602061515c888289016145d0565b945050604061516d888289016141a8565b935050606061517e888289016141a8565b925050608086013567ffffffffffffffff81111561519f5761519e61409d565b5b6151ab8882890161436e565b9150509295509295909350565b6000819050919050565b60006151dd6151d86151d384614587565b6151b8565b614587565b9050919050565b60006151ef826151c2565b9050919050565b6000615201826151e4565b9050919050565b615211816151f6565b82525050565b600060208201905061522c6000830184615208565b92915050565b600081905092915050565b60006152498385615232565b935061525683858461431d565b82840190509392505050565b600061526f82848661523d565b91508190509392505050565b615284816141bd565b82525050565b600060a08201905061529f60008301886149b4565b6152ac6020830187614167565b6152b9604083018661527b565b6152c660608301856149b4565b6152d360808301846149b4565b9695505050505050565b7f476f7665726e6f723a206f6e6c79476f7665726e616e63650000000000000000600082015250565b60006153136018836144e8565b915061531e826152dd565b602082019050919050565b6000602082019050818103600083015261534281615306565b9050919050565b7f4e487b7100000000000000000000000000000000000000000000000000000000600052602260045260246000fd5b6000600282049050600182168061539057607f821691505b602082108114156153a4576153a3615349565b5b50919050565b7f476f7665726e6f723a2070726f706f73616c206e6f742073756363657373667560008201527f6c00000000000000000000000000000000000000000000000000000000000000602082015250565b60006154066021836144e8565b9150615411826153aa565b604082019050919050565b60006020820190508181036000830152615435816153f9565b9050919050565b60008151905061544b81614191565b92915050565b60006020828403121561546757615466614098565b5b60006154758482850161543c565b91505092915050565b600081519050919050565b600082825260208201905092915050565b6000819050602082019050919050565b6154b3816145a7565b82525050565b60006154c583836154aa565b60208301905092915050565b6000602082019050919050565b60006154e98261547e565b6154f38185615489565b93506154fe8361549a565b8060005b8381101561552f57815161551688826154b9565b9750615521836154d1565b925050600181019050615502565b5085935050505092915050565b600081519050919050565b600082825260208201905092915050565b6000819050602082019050919050565b6155718161415d565b82525050565b60006155838383615568565b60208301905092915050565b6000602082019050919050565b60006155a78261553c565b6155b18185615547565b93506155bc83615558565b8060005b838110156155ed5781516155d48882615577565b97506155df8361558f565b9250506001810190506155c0565b5085935050505092915050565b600081519050919050565b600082825260208201905092915050565b6000819050602082019050919050565b600081519050919050565b600082825260208201905092915050565b600061564d82615626565b6156578185615631565b93506156678185602086016144f9565b61567081614260565b840191505092915050565b60006156878383615642565b905092915050565b6000602082019050919050565b60006156a7826155fa565b6156b18185615605565b9350836020820285016156c385615616565b8060005b858110156156ff57848403895281516156e0858261567b565b94506156eb8361568f565b925060208a019950506001810190506156c7565b50829750879550505050505092915050565b6000819050919050565b60008160001b9050919050565b600061574361573e61573984615711565b61571b565b61439c565b9050919050565b61575381615728565b82525050565b600060a082019050818103600083015261577381886154de565b90508181036020830152615787818761559c565b9050818103604083015261579b818661569c565b90506157aa606083018561574a565b6157b760808301846149b4565b9695505050505050565b6000815190506157d0816143a6565b92915050565b6000602082840312156157ec576157eb614098565b5b60006157fa848285016157c1565b91505092915050565b600060c082019050818103600083015261581d81896154de565b90508181036020830152615831818861559c565b90508181036040830152615845818761569c565b9050615854606083018661574a565b61586160808301856149b4565b61586e60a0830184614167565b979650505050505050565b7f4e487b7100000000000000000000000000000000000000000000000000000000600052601160045260246000fd5b60006158b38261415d565b91506158be8361415d565b9250827fffffffffffffffffffffffffffffffffffffffffffffffffffffffffffffffff038211156158f3576158f2615879565b5b828201905092915050565b60006040820190506159136000830185614167565b6159206020830184614167565b9392505050565b600060608201905061593c60008301866149b4565b6159496020830185614167565b615956604083018461527b565b949350505050565b60006159698261415d565b91506159748361415d565b92508282101561598757615986615879565b5b828203905092915050565b7f4e487b7100000000000000000000000000000000000000000000000000000000600052603260045260246000fd5b600060808201905081810360008301526159db81876154de565b905081810360208301526159ef818661559c565b90508181036040830152615a03818561569c565b9050615a1260608301846149b4565b95945050505050565b7f53616665436173743a2076616c756520646f65736e27742066697420696e203260008201527f3234206269747300000000000000000000000000000000000000000000000000602082015250565b6000615a776027836144e8565b9150615a8282615a1b565b604082019050919050565b60006020820190508181036000830152615aa681615a6a565b9050919050565b7f53616665436173743a2076616c756520646f65736e27742066697420696e203360008201527f3220626974730000000000000000000000000000000000000000000000000000602082015250565b6000615b096026836144e8565b9150615b1482615aad565b604082019050919050565b60006020820190508181036000830152615b3881615afc565b9050919050565b7f476f7665726e6f723a20766f7465206e6f742063757272656e746c792061637460008201527f6976650000000000000000000000000000000000000000000000000000000000602082015250565b6000615b9b6023836144e8565b9150615ba682615b3f565b604082019050919050565b60006020820190508181036000830152615bca81615b8e565b9050919050565b6000608082019050615be66000830187614167565b615bf3602083018661527b565b615c006040830185614167565b8181036060830152615c12818461452c565b905095945050505050565b600082825260208201905092915050565b6000615c3982615626565b615c438185615c1d565b9350615c538185602086016144f9565b615c5c81614260565b840191505092915050565b600060a082019050615c7c6000830188614167565b615c89602083018761527b565b615c966040830186614167565b8181036060830152615ca8818561452c565b90508181036080830152615cbc8184615c2e565b90509695505050505050565b7f476f7665726e6f72566f74657351756f72756d4672616374696f6e3a2071756f60008201527f72756d4e756d657261746f72206f7665722071756f72756d44656e6f6d696e6160208201527f746f720000000000000000000000000000000000000000000000000000000000604082015250565b6000615d4a6043836144e8565b9150615d5582615cc8565b606082019050919050565b60006020820190508181036000830152615d7981615d3d565b9050919050565b6000615d8b8261415d565b91507fffffffffffffffffffffffffffffffffffffffffffffffffffffffffffffffff821415615dbe57615dbd615879565b5b600182019050919050565b615dd281614127565b8114615ddd57600080fd5b50565b600081519050615def81615dc9565b92915050565b600060208284031215615e0b57615e0a614098565b5b6000615e1984828501615de0565b91505092915050565b7f436865636b706f696e74733a20626c6f636b206e6f7420796574206d696e6564600082015250565b6000615e586020836144e8565b9150615e6382615e22565b602082019050919050565b60006020820190508181036000830152615e8781615e4b565b9050919050565b7f476f7665726e6f723a2070726f706f73657220766f7465732062656c6f77207060008201527f726f706f73616c207468726573686f6c64000000000000000000000000000000602082015250565b6000615eea6031836144e8565b9150615ef582615e8e565b604082019050919050565b60006020820190508181036000830152615f1981615edd565b9050919050565b7f476f7665726e6f723a20696e76616c69642070726f706f73616c206c656e677460008201527f6800000000000000000000000000000000000000000000000000000000000000602082015250565b6000615f7c6021836144e8565b9150615f8782615f20565b604082019050919050565b60006020820190508181036000830152615fab81615f6f565b9050919050565b7f476f7665726e6f723a20656d7074792070726f706f73616c0000000000000000600082015250565b6000615fe86018836144e8565b9150615ff382615fb2565b602082019050919050565b6000602082019050818103600083015261601781615fdb565b9050919050565b7f476f7665726e6f723a2070726f706f73616c20616c726561647920657869737460008201527f7300000000000000000000000000000000000000000000000000000000000000602082015250565b600061607a6021836144e8565b91506160858261601e565b604082019050919050565b600060208201905081810360008301526160a98161606d565b9050919050565b600067ffffffffffffffff82169050919050565b60006160cf826160b0565b91506160da836160b0565b92508267ffffffffffffffff038211156160f7576160f6615879565b5b828201905092915050565b600081519050919050565b600082825260208201905092915050565b6000819050602082019050919050565b600082825260208201905092915050565b600061614a826144dd565b616154818561612e565b93506161648185602086016144f9565b61616d81614260565b840191505092915050565b6000616184838361613f565b905092915050565b6000602082019050919050565b60006161a482616102565b6161ae818561610d565b9350836020820285016161c08561611e565b8060005b858110156161fc57848403895281516161dd8582616178565b94506161e88361618c565b925060208a019950506001810190506161c4565b50829750879550505050505092915050565b600061622961622461621f846160b0565b6151b8565b61415d565b9050919050565b6162398161620e565b82525050565b600061012082019050616255600083018c614167565b616262602083018b6150b7565b8181036040830152616274818a6154de565b90508181036060830152616288818961559c565b9050818103608083015261629c8188616199565b905081810360a08301526162b0818761569c565b90506162bf60c0830186616230565b6162cc60e0830185616230565b8181036101008301526162df818461452c565b90509a9950505050505050505050565b600060408201905061630460008301856150b7565b6163116020830184614167565b9392505050565b600060408201905061632d60008301856150b7565b61633a60208301846150b7565b9392505050565b7f476f7665726e6f7253657474696e67733a20766f74696e6720706572696f642060008201527f746f6f206c6f7700000000000000000000000000000000000000000000000000602082015250565b600061639d6027836144e8565b91506163a882616341565b604082019050919050565b600060208201905081810360008301526163cc81616390565b9050919050565b60006163de8261415d565b91506163e98361415d565b9250817fffffffffffffffffffffffffffffffffffffffffffffffffffffffffffffffff048311821515161561642257616421615879565b5b828202905092915050565b7f4e487b7100000000000000000000000000000000000000000000000000000000600052601260045260246000fd5b60006164678261415d565b91506164728361415d565b9250826164825761648161642d565b5b828204905092915050565b600081905092915050565b7f1901000000000000000000000000000000000000000000000000000000000000600082015250565b60006164ce60028361648d565b91506164d982616498565b600282019050919050565b6000819050919050565b6164ff6164fa8261439c565b6164e4565b82525050565b6000616510826164c1565b915061651c82856164ee565b60208201915061652c82846164ee565b6020820191508190509392505050565b600060808201905061655160008301876149b4565b61655e602083018661527b565b61656b60408301856149b4565b61657860608301846149b4565b95945050505050565b7f45434453413a20696e76616c6964207369676e61747572650000000000000000600082015250565b60006165b76018836144e8565b91506165c282616581565b602082019050919050565b600060208201905081810360008301526165e6816165aa565b9050919050565b7f45434453413a20696e76616c6964207369676e6174757265206c656e67746800600082015250565b6000616623601f836144e8565b915061662e826165ed565b602082019050919050565b6000602082019050818103600083015261665281616616565b9050919050565b7f45434453413a20696e76616c6964207369676e6174757265202773272076616c60008201527f7565000000000000000000000000000000000000000000000000000000000000602082015250565b60006166b56022836144e8565b91506166c082616659565b604082019050919050565b600060208201905081810360008301526166e4816166a8565b9050919050565b7f45434453413a20696e76616c6964207369676e6174757265202776272076616c60008201527f7565000000000000000000000000000000000000000000000000000000000000602082015250565b60006167476022836144e8565b9150616752826166eb565b604082019050919050565b600060208201905081810360008301526167768161673a565b9050919050565b7f476f7665726e6f72566f74696e6753696d706c653a20766f746520616c72656160008201527f6479206361737400000000000000000000000000000000000000000000000000602082015250565b60006167d96027836144e8565b91506167e48261677d565b604082019050919050565b60006020820190508181036000830152616808816167cc565b9050919050565b7f476f7665726e6f72566f74696e6753696d706c653a20696e76616c696420766160008201527f6c756520666f7220656e756d20566f7465547970650000000000000000000000602082015250565b600061686b6035836144e8565b91506168768261680f565b604082019050919050565b6000602082019050818103600083015261689a8161685e565b9050919050565b7f476f7665726e6f723a20756e6b6e6f776e2070726f706f73616c206964000000600082015250565b60006168d7601d836144e8565b91506168e2826168a1565b602082019050919050565b60006020820190508181036000830152616906816168ca565b9050919050565b7f53616665436173743a2076616c756520646f65736e27742066697420696e203660008201527f3420626974730000000000000000000000000000000000000000000000000000602082015250565b60006169696026836144e8565b91506169748261690d565b604082019050919050565b600060208201905081810360008301526169988161695c565b9050919050565b7f416464726573733a20696e73756666696369656e742062616c616e636520666f60008201527f722063616c6c0000000000000000000000000000000000000000000000000000602082015250565b60006169fb6026836144e8565b9150616a068261699f565b604082019050919050565b60006020820190508181036000830152616a2a816169ee565b9050919050565b7f416464726573733a2063616c6c20746f206e6f6e2d636f6e7472616374000000600082015250565b6000616a67601d836144e8565b9150616a7282616a31565b602082019050919050565b60006020820190508181036000830152616a9681616a5a565b9050919050565b6000616aa882615626565b616ab28185615232565b9350616ac28185602086016144f9565b80840191505092915050565b6000616ada8284616a9d565b915081905092915050565b600060a082019050616afa60008301886149b4565b616b0760208301876149b4565b616b1460408301866149b4565b616b216060830185614167565b616b2e60808301846150b7565b969550505050505056fe416464726573733a206c6f772d6c6576656c2063616c6c20776974682076616c7565206661696c6564a2646970667358221220ed7b3daef5c4c9340b0275e7a2a4b5ffa90c5b25f6ed6c7d6f80250bbc47fac764736f6c63430008080033",
  "devdoc": {
    "errors": {
      "Empty()": [
        {
          "details": "An operation (e.g. {front}) couldn't be completed due to the queue being empty."
        }
      ]
    },
    "kind": "dev",
    "methods": {
      "COUNTING_MODE()": {
        "details": "See {IGovernor-COUNTING_MODE}."
      },
      "castVote(uint256,uint8)": {
        "details": "See {IGovernor-castVote}."
      },
      "castVoteBySig(uint256,uint8,uint8,bytes32,bytes32)": {
        "details": "See {IGovernor-castVoteBySig}."
      },
      "castVoteWithReason(uint256,uint8,string)": {
        "details": "See {IGovernor-castVoteWithReason}."
      },
      "castVoteWithReasonAndParams(uint256,uint8,string,bytes)": {
        "details": "See {IGovernor-castVoteWithReasonAndParams}."
      },
      "castVoteWithReasonAndParamsBySig(uint256,uint8,string,bytes,uint8,bytes32,bytes32)": {
        "details": "See {IGovernor-castVoteWithReasonAndParamsBySig}."
      },
      "execute(address[],uint256[],bytes[],bytes32)": {
        "details": "See {IGovernor-execute}."
      },
      "getVotes(address,uint256)": {
        "details": "See {IGovernor-getVotes}."
      },
      "getVotesWithParams(address,uint256,bytes)": {
        "details": "See {IGovernor-getVotesWithParams}."
      },
      "hasVoted(uint256,address)": {
        "details": "See {IGovernor-hasVoted}."
      },
      "hashProposal(address[],uint256[],bytes[],bytes32)": {
        "details": "See {IGovernor-hashProposal}. The proposal id is produced by hashing the ABI encoded `targets` array, the `values` array, the `calldatas` array and the descriptionHash (bytes32 which itself is the keccak256 hash of the description string). This proposal id can be produced from the proposal data which is part of the {ProposalCreated} event. It can even be computed in advance, before the proposal is submitted. Note that the chainId and the governor address are not part of the proposal id computation. Consequently, the same proposal (with same operation and same description) will have the same id if submitted on multiple governors across multiple networks. This also means that in order to execute the same operation twice (on the same governor) the proposer will have to change the description in order to avoid proposal id conflicts."
      },
      "name()": {
        "details": "See {IGovernor-name}."
      },
      "onERC1155BatchReceived(address,address,uint256[],uint256[],bytes)": {
        "details": "See {IERC1155Receiver-onERC1155BatchReceived}."
      },
      "onERC1155Received(address,address,uint256,uint256,bytes)": {
        "details": "See {IERC1155Receiver-onERC1155Received}."
      },
      "onERC721Received(address,address,uint256,bytes)": {
        "details": "See {IERC721Receiver-onERC721Received}."
      },
      "proposalDeadline(uint256)": {
        "details": "See {IGovernor-proposalDeadline}."
      },
      "proposalEta(uint256)": {
        "details": "Public accessor to check the eta of a queued proposal"
      },
      "proposalSnapshot(uint256)": {
        "details": "See {IGovernor-proposalSnapshot}."
      },
      "proposalVotes(uint256)": {
        "details": "Accessor to the internal vote counts."
      },
      "queue(address[],uint256[],bytes[],bytes32)": {
        "details": "Function to queue a proposal to the timelock."
      },
      "quorumDenominator()": {
        "details": "Returns the quorum denominator. Defaults to 100, but may be overridden."
      },
      "quorumNumerator()": {
        "details": "Returns the current quorum numerator. See {quorumDenominator}."
      },
      "quorumNumerator(uint256)": {
        "details": "Returns the quorum numerator at a specific block number. See {quorumDenominator}."
      },
      "relay(address,uint256,bytes)": {
        "details": "Relays a transaction or function call to an arbitrary target. In cases where the governance executor is some contract other than the governor itself, like when using a timelock, this function can be invoked in a governance proposal to recover tokens or Ether that was sent to the governor contract by mistake. Note that if the executor is simply the governor itself, use of `relay` is redundant."
      },
      "setProposalThreshold(uint256)": {
        "details": "Update the proposal threshold. This operation can only be performed through a governance proposal. Emits a {ProposalThresholdSet} event."
      },
      "setVotingDelay(uint256)": {
        "details": "Update the voting delay. This operation can only be performed through a governance proposal. Emits a {VotingDelaySet} event."
      },
      "setVotingPeriod(uint256)": {
        "details": "Update the voting period. This operation can only be performed through a governance proposal. Emits a {VotingPeriodSet} event."
      },
      "timelock()": {
        "details": "Public accessor to check the address of the timelock"
      },
      "updateQuorumNumerator(uint256)": {
        "details": "Changes the quorum numerator. Emits a {QuorumNumeratorUpdated} event. Requirements: - Must be called through a governance proposal. - New numerator must be smaller or equal to the denominator."
      },
      "updateTimelock(address)": {
        "details": "Public endpoint to update the underlying timelock instance. Restricted to the timelock itself, so updates must be proposed, scheduled, and executed through governance proposals. CAUTION: It is not recommended to change the timelock while there are other queued governance proposals."
      },
      "version()": {
        "details": "See {IGovernor-version}."
      }
    },
    "version": 1
  },
  "userdoc": {
    "kind": "user",
    "methods": {},
    "version": 1
  },
  "storageLayout": {
    "storage": [
      {
        "astId": 565,
        "contract": "contracts/GovernorContract.sol:GovernorContract",
        "label": "_name",
        "offset": 0,
        "slot": "0",
        "type": "t_string_storage"
      },
      {
        "astId": 570,
        "contract": "contracts/GovernorContract.sol:GovernorContract",
        "label": "_proposals",
        "offset": 0,
        "slot": "1",
        "type": "t_mapping(t_uint256,t_struct(ProposalCore)563_storage)"
      },
      {
        "astId": 573,
        "contract": "contracts/GovernorContract.sol:GovernorContract",
        "label": "_governanceCall",
        "offset": 0,
        "slot": "2",
        "type": "t_struct(Bytes32Deque)9778_storage"
      },
      {
        "astId": 3238,
        "contract": "contracts/GovernorContract.sol:GovernorContract",
        "label": "_votingDelay",
        "offset": 0,
        "slot": "4",
        "type": "t_uint256"
      },
      {
        "astId": 3240,
        "contract": "contracts/GovernorContract.sol:GovernorContract",
        "label": "_votingPeriod",
        "offset": 0,
        "slot": "5",
        "type": "t_uint256"
      },
      {
        "astId": 3242,
        "contract": "contracts/GovernorContract.sol:GovernorContract",
        "label": "_proposalThreshold",
        "offset": 0,
        "slot": "6",
        "type": "t_uint256"
      },
      {
        "astId": 3030,
        "contract": "contracts/GovernorContract.sol:GovernorContract",
        "label": "_proposalVotes",
        "offset": 0,
        "slot": "7",
        "type": "t_mapping(t_uint256,t_struct(ProposalVote)3025_storage)"
      },
      {
        "astId": 3841,
        "contract": "contracts/GovernorContract.sol:GovernorContract",
        "label": "_quorumNumerator",
        "offset": 0,
        "slot": "8",
        "type": "t_uint256"
      },
      {
        "astId": 3844,
        "contract": "contracts/GovernorContract.sol:GovernorContract",
        "label": "_quorumNumeratorHistory",
        "offset": 0,
        "slot": "9",
        "type": "t_struct(History)6052_storage"
      },
      {
        "astId": 3421,
        "contract": "contracts/GovernorContract.sol:GovernorContract",
        "label": "_timelock",
        "offset": 0,
        "slot": "10",
        "type": "t_contract(TimelockController)3004"
      },
      {
        "astId": 3425,
        "contract": "contracts/GovernorContract.sol:GovernorContract",
        "label": "_timelockIds",
        "offset": 0,
        "slot": "11",
        "type": "t_mapping(t_uint256,t_bytes32)"
      }
    ],
    "types": {
      "t_address": {
        "encoding": "inplace",
        "label": "address",
        "numberOfBytes": "20"
      },
      "t_array(t_struct(Checkpoint)6047_storage)dyn_storage": {
        "base": "t_struct(Checkpoint)6047_storage",
        "encoding": "dynamic_array",
        "label": "struct Checkpoints.Checkpoint[]",
        "numberOfBytes": "32"
      },
      "t_bool": {
        "encoding": "inplace",
        "label": "bool",
        "numberOfBytes": "1"
      },
      "t_bytes32": {
        "encoding": "inplace",
        "label": "bytes32",
        "numberOfBytes": "32"
      },
      "t_contract(TimelockController)3004": {
        "encoding": "inplace",
        "label": "contract TimelockController",
        "numberOfBytes": "20"
      },
      "t_int128": {
        "encoding": "inplace",
        "label": "int128",
        "numberOfBytes": "16"
      },
      "t_mapping(t_address,t_bool)": {
        "encoding": "mapping",
        "key": "t_address",
        "label": "mapping(address => bool)",
        "numberOfBytes": "32",
        "value": "t_bool"
      },
      "t_mapping(t_int128,t_bytes32)": {
        "encoding": "mapping",
        "key": "t_int128",
        "label": "mapping(int128 => bytes32)",
        "numberOfBytes": "32",
        "value": "t_bytes32"
      },
      "t_mapping(t_uint256,t_bytes32)": {
        "encoding": "mapping",
        "key": "t_uint256",
        "label": "mapping(uint256 => bytes32)",
        "numberOfBytes": "32",
        "value": "t_bytes32"
      },
      "t_mapping(t_uint256,t_struct(ProposalCore)563_storage)": {
        "encoding": "mapping",
        "key": "t_uint256",
        "label": "mapping(uint256 => struct Governor.ProposalCore)",
        "numberOfBytes": "32",
        "value": "t_struct(ProposalCore)563_storage"
      },
      "t_mapping(t_uint256,t_struct(ProposalVote)3025_storage)": {
        "encoding": "mapping",
        "key": "t_uint256",
        "label": "mapping(uint256 => struct GovernorCountingSimple.ProposalVote)",
        "numberOfBytes": "32",
        "value": "t_struct(ProposalVote)3025_storage"
      },
      "t_string_storage": {
        "encoding": "bytes",
        "label": "string",
        "numberOfBytes": "32"
      },
      "t_struct(BlockNumber)6704_storage": {
        "encoding": "inplace",
        "label": "struct Timers.BlockNumber",
        "members": [
          {
            "astId": 6703,
            "contract": "contracts/GovernorContract.sol:GovernorContract",
            "label": "_deadline",
            "offset": 0,
            "slot": "0",
            "type": "t_uint64"
          }
        ],
        "numberOfBytes": "32"
      },
      "t_struct(Bytes32Deque)9778_storage": {
        "encoding": "inplace",
        "label": "struct DoubleEndedQueue.Bytes32Deque",
        "members": [
          {
            "astId": 9771,
            "contract": "contracts/GovernorContract.sol:GovernorContract",
            "label": "_begin",
            "offset": 0,
            "slot": "0",
            "type": "t_int128"
          },
          {
            "astId": 9773,
            "contract": "contracts/GovernorContract.sol:GovernorContract",
            "label": "_end",
            "offset": 16,
            "slot": "0",
            "type": "t_int128"
          },
          {
            "astId": 9777,
            "contract": "contracts/GovernorContract.sol:GovernorContract",
            "label": "_data",
            "offset": 0,
            "slot": "1",
            "type": "t_mapping(t_int128,t_bytes32)"
          }
        ],
        "numberOfBytes": "64"
      },
      "t_struct(Checkpoint)6047_storage": {
        "encoding": "inplace",
        "label": "struct Checkpoints.Checkpoint",
        "members": [
          {
            "astId": 6044,
            "contract": "contracts/GovernorContract.sol:GovernorContract",
            "label": "_blockNumber",
            "offset": 0,
            "slot": "0",
            "type": "t_uint32"
          },
          {
            "astId": 6046,
            "contract": "contracts/GovernorContract.sol:GovernorContract",
            "label": "_value",
            "offset": 4,
            "slot": "0",
            "type": "t_uint224"
          }
        ],
        "numberOfBytes": "32"
      },
      "t_struct(History)6052_storage": {
        "encoding": "inplace",
        "label": "struct Checkpoints.History",
        "members": [
          {
            "astId": 6051,
            "contract": "contracts/GovernorContract.sol:GovernorContract",
            "label": "_checkpoints",
            "offset": 0,
            "slot": "0",
            "type": "t_array(t_struct(Checkpoint)6047_storage)dyn_storage"
          }
        ],
        "numberOfBytes": "32"
      },
      "t_struct(ProposalCore)563_storage": {
        "encoding": "inplace",
        "label": "struct Governor.ProposalCore",
        "members": [
          {
            "astId": 555,
            "contract": "contracts/GovernorContract.sol:GovernorContract",
            "label": "voteStart",
            "offset": 0,
            "slot": "0",
            "type": "t_struct(BlockNumber)6704_storage"
          },
          {
            "astId": 558,
            "contract": "contracts/GovernorContract.sol:GovernorContract",
            "label": "voteEnd",
            "offset": 0,
            "slot": "1",
            "type": "t_struct(BlockNumber)6704_storage"
          },
          {
            "astId": 560,
            "contract": "contracts/GovernorContract.sol:GovernorContract",
            "label": "executed",
            "offset": 0,
            "slot": "2",
            "type": "t_bool"
          },
          {
            "astId": 562,
            "contract": "contracts/GovernorContract.sol:GovernorContract",
            "label": "canceled",
            "offset": 1,
            "slot": "2",
            "type": "t_bool"
          }
        ],
        "numberOfBytes": "96"
      },
      "t_struct(ProposalVote)3025_storage": {
        "encoding": "inplace",
        "label": "struct GovernorCountingSimple.ProposalVote",
        "members": [
          {
            "astId": 3016,
            "contract": "contracts/GovernorContract.sol:GovernorContract",
            "label": "againstVotes",
            "offset": 0,
            "slot": "0",
            "type": "t_uint256"
          },
          {
            "astId": 3018,
            "contract": "contracts/GovernorContract.sol:GovernorContract",
            "label": "forVotes",
            "offset": 0,
            "slot": "1",
            "type": "t_uint256"
          },
          {
            "astId": 3020,
            "contract": "contracts/GovernorContract.sol:GovernorContract",
            "label": "abstainVotes",
            "offset": 0,
            "slot": "2",
            "type": "t_uint256"
          },
          {
            "astId": 3024,
            "contract": "contracts/GovernorContract.sol:GovernorContract",
            "label": "hasVoted",
            "offset": 0,
            "slot": "3",
            "type": "t_mapping(t_address,t_bool)"
          }
        ],
        "numberOfBytes": "128"
      },
      "t_uint224": {
        "encoding": "inplace",
        "label": "uint224",
        "numberOfBytes": "28"
      },
      "t_uint256": {
        "encoding": "inplace",
        "label": "uint256",
        "numberOfBytes": "32"
      },
      "t_uint32": {
        "encoding": "inplace",
        "label": "uint32",
        "numberOfBytes": "4"
      },
      "t_uint64": {
        "encoding": "inplace",
        "label": "uint64",
        "numberOfBytes": "8"
      }
    }
  }
}